{
	"Contracts/Storage.sol": {
		"Upload": {
			"abi": [
				{
					"inputs": [
						{
							"internalType": "address",
							"name": "_user",
							"type": "address"
						},
						{
							"internalType": "string",
							"name": "url",
							"type": "string"
						}
					],
					"name": "add",
					"outputs": [],
					"stateMutability": "nonpayable",
					"type": "function"
				},
				{
					"inputs": [
						{
							"internalType": "address",
							"name": "user",
							"type": "address"
						}
					],
					"name": "allow",
					"outputs": [],
					"stateMutability": "nonpayable",
					"type": "function"
				},
				{
					"inputs": [
						{
							"internalType": "address",
							"name": "user",
							"type": "address"
						}
					],
					"name": "disallow",
					"outputs": [],
					"stateMutability": "nonpayable",
					"type": "function"
				},
				{
					"inputs": [
						{
							"internalType": "address",
							"name": "_user",
							"type": "address"
						}
					],
					"name": "display",
					"outputs": [
						{
							"internalType": "string[]",
							"name": "",
							"type": "string[]"
						}
					],
					"stateMutability": "view",
					"type": "function"
				},
				{
					"inputs": [],
					"name": "shareAccess",
					"outputs": [
						{
							"components": [
								{
									"internalType": "address",
									"name": "user",
									"type": "address"
								},
								{
									"internalType": "bool",
									"name": "access",
									"type": "bool"
								}
							],
							"internalType": "struct Upload.Access[]",
							"name": "",
							"type": "tuple[]"
						}
					],
					"stateMutability": "view",
					"type": "function"
				}
			],
			"devdoc": {
				"kind": "dev",
				"methods": {},
				"version": 1
			},
			"evm": {
				"assembly": "    /* \"Contracts/Storage.sol\":70:1620  contract Upload{... */\n  mstore(0x40, 0x80)\n  callvalue\n  dup1\n  iszero\n  tag_1\n  jumpi\n  revert(0x00, 0x00)\ntag_1:\n  pop\n  dataSize(sub_0)\n  dup1\n  dataOffset(sub_0)\n  0x00\n  codecopy\n  0x00\n  return\nstop\n\nsub_0: assembly {\n        /* \"Contracts/Storage.sol\":70:1620  contract Upload{... */\n      mstore(0x40, 0x80)\n      callvalue\n      dup1\n      iszero\n      tag_1\n      jumpi\n      revert(0x00, 0x00)\n    tag_1:\n      pop\n      jumpi(tag_2, lt(calldatasize, 0x04))\n      shr(0xe0, calldataload(0x00))\n      dup1\n      0x36d6da55\n      eq\n      tag_3\n      jumpi\n      dup1\n      0xa9ed9cb8\n      eq\n      tag_4\n      jumpi\n      dup1\n      0xbc8bef81\n      eq\n      tag_5\n      jumpi\n      dup1\n      0xeb39113f\n      eq\n      tag_6\n      jumpi\n      dup1\n      0xff9913e8\n      eq\n      tag_7\n      jumpi\n    tag_2:\n      revert(0x00, 0x00)\n        /* \"Contracts/Storage.sol\":368:464  function add(address _user,string memory url) external {... */\n    tag_3:\n      tag_8\n      0x04\n      dup1\n      calldatasize\n      sub\n      dup2\n      add\n      swap1\n      tag_9\n      swap2\n      swap1\n      tag_10\n      jump\t// in\n    tag_9:\n      tag_11\n      jump\t// in\n    tag_8:\n      stop\n        /* \"Contracts/Storage.sol\":975:1292  function disallow(address user) public {... */\n    tag_4:\n      tag_12\n      0x04\n      dup1\n      calldatasize\n      sub\n      dup2\n      add\n      swap1\n      tag_13\n      swap2\n      swap1\n      tag_14\n      jump\t// in\n    tag_13:\n      tag_15\n      jump\t// in\n    tag_12:\n      stop\n        /* \"Contracts/Storage.sol\":1510:1617  function shareAccess() public view returns(Access[] memory){... */\n    tag_5:\n      tag_16\n      tag_17\n      jump\t// in\n    tag_16:\n      mload(0x40)\n      tag_18\n      swap2\n      swap1\n      tag_19\n      jump\t// in\n    tag_18:\n      mload(0x40)\n      dup1\n      swap2\n      sub\n      swap1\n      return\n        /* \"Contracts/Storage.sol\":1300:1502  function display(address _user) external view returns(string[] memory){... */\n    tag_6:\n      tag_20\n      0x04\n      dup1\n      calldatasize\n      sub\n      dup2\n      add\n      swap1\n      tag_21\n      swap2\n      swap1\n      tag_14\n      jump\t// in\n    tag_21:\n      tag_22\n      jump\t// in\n    tag_20:\n      mload(0x40)\n      tag_23\n      swap2\n      swap1\n      tag_24\n      jump\t// in\n    tag_23:\n      mload(0x40)\n      dup1\n      swap2\n      sub\n      swap1\n      return\n        /* \"Contracts/Storage.sol\":472:967  function allow(address user) external {... */\n    tag_7:\n      tag_25\n      0x04\n      dup1\n      calldatasize\n      sub\n      dup2\n      add\n      swap1\n      tag_26\n      swap2\n      swap1\n      tag_14\n      jump\t// in\n    tag_26:\n      tag_27\n      jump\t// in\n    tag_25:\n      stop\n        /* \"Contracts/Storage.sol\":368:464  function add(address _user,string memory url) external {... */\n    tag_11:\n        /* \"Contracts/Storage.sol\":434:439  value */\n      0x00\n        /* \"Contracts/Storage.sol\":434:446  value[_user] */\n      0x00\n        /* \"Contracts/Storage.sol\":440:445  _user */\n      dup4\n        /* \"Contracts/Storage.sol\":434:446  value[_user] */\n      0xffffffffffffffffffffffffffffffffffffffff\n      and\n      0xffffffffffffffffffffffffffffffffffffffff\n      and\n      dup2\n      mstore\n      0x20\n      add\n      swap1\n      dup2\n      mstore\n      0x20\n      add\n      0x00\n      keccak256\n        /* \"Contracts/Storage.sol\":452:455  url */\n      dup2\n        /* \"Contracts/Storage.sol\":434:456  value[_user].push(url) */\n      swap1\n      dup1\n      0x01\n      dup2\n      sload\n      add\n      dup1\n      dup3\n      sstore\n      dup1\n      swap2\n      pop\n      pop\n      0x01\n      swap1\n      sub\n      swap1\n      0x00\n      mstore\n      keccak256(0x00, 0x20)\n      add\n      0x00\n      swap1\n      swap2\n      swap1\n      swap2\n      swap1\n      swap2\n      pop\n      swap1\n      dup2\n      tag_30\n      swap2\n      swap1\n      tag_31\n      jump\t// in\n    tag_30:\n      pop\n        /* \"Contracts/Storage.sol\":368:464  function add(address _user,string memory url) external {... */\n      pop\n      pop\n      jump\t// out\n        /* \"Contracts/Storage.sol\":975:1292  function disallow(address user) public {... */\n    tag_15:\n        /* \"Contracts/Storage.sol\":1055:1060  false */\n      0x00\n        /* \"Contracts/Storage.sol\":1025:1034  ownership */\n      0x02\n        /* \"Contracts/Storage.sol\":1025:1046  ownership[msg.sender] */\n      0x00\n        /* \"Contracts/Storage.sol\":1035:1045  msg.sender */\n      caller\n        /* \"Contracts/Storage.sol\":1025:1046  ownership[msg.sender] */\n      0xffffffffffffffffffffffffffffffffffffffff\n      and\n      0xffffffffffffffffffffffffffffffffffffffff\n      and\n      dup2\n      mstore\n      0x20\n      add\n      swap1\n      dup2\n      mstore\n      0x20\n      add\n      0x00\n      keccak256\n        /* \"Contracts/Storage.sol\":1025:1052  ownership[msg.sender][user] */\n      0x00\n        /* \"Contracts/Storage.sol\":1047:1051  user */\n      dup4\n        /* \"Contracts/Storage.sol\":1025:1052  ownership[msg.sender][user] */\n      0xffffffffffffffffffffffffffffffffffffffff\n      and\n      0xffffffffffffffffffffffffffffffffffffffff\n      and\n      dup2\n      mstore\n      0x20\n      add\n      swap1\n      dup2\n      mstore\n      0x20\n      add\n      0x00\n      keccak256\n      0x00\n        /* \"Contracts/Storage.sol\":1025:1060  ownership[msg.sender][user] = false */\n      0x0100\n      exp\n      dup2\n      sload\n      dup2\n      0xff\n      mul\n      not\n      and\n      swap1\n      dup4\n      iszero\n      iszero\n      mul\n      or\n      swap1\n      sstore\n      pop\n        /* \"Contracts/Storage.sol\":1085:1091  uint i */\n      0x00\n        /* \"Contracts/Storage.sol\":1092:1093  0 */\n      0x00\n        /* \"Contracts/Storage.sol\":1085:1093  uint i=0 */\n      swap1\n      pop\n        /* \"Contracts/Storage.sol\":1081:1285  for(uint i=0;i<accessList[msg.sender].length;i++){... */\n    tag_33:\n        /* \"Contracts/Storage.sol\":1096:1106  accessList */\n      0x01\n        /* \"Contracts/Storage.sol\":1096:1118  accessList[msg.sender] */\n      0x00\n        /* \"Contracts/Storage.sol\":1107:1117  msg.sender */\n      caller\n        /* \"Contracts/Storage.sol\":1096:1118  accessList[msg.sender] */\n      0xffffffffffffffffffffffffffffffffffffffff\n      and\n      0xffffffffffffffffffffffffffffffffffffffff\n      and\n      dup2\n      mstore\n      0x20\n      add\n      swap1\n      dup2\n      mstore\n      0x20\n      add\n      0x00\n      keccak256\n        /* \"Contracts/Storage.sol\":1096:1125  accessList[msg.sender].length */\n      dup1\n      sload\n      swap1\n      pop\n        /* \"Contracts/Storage.sol\":1094:1095  i */\n      dup2\n        /* \"Contracts/Storage.sol\":1094:1125  i<accessList[msg.sender].length */\n      lt\n        /* \"Contracts/Storage.sol\":1081:1285  for(uint i=0;i<accessList[msg.sender].length;i++){... */\n      iszero\n      tag_34\n      jumpi\n        /* \"Contracts/Storage.sol\":1184:1188  user */\n      dup2\n        /* \"Contracts/Storage.sol\":1152:1188  accessList[msg.sender][i].user==user */\n      0xffffffffffffffffffffffffffffffffffffffff\n      and\n        /* \"Contracts/Storage.sol\":1152:1162  accessList */\n      0x01\n        /* \"Contracts/Storage.sol\":1152:1174  accessList[msg.sender] */\n      0x00\n        /* \"Contracts/Storage.sol\":1163:1173  msg.sender */\n      caller\n        /* \"Contracts/Storage.sol\":1152:1174  accessList[msg.sender] */\n      0xffffffffffffffffffffffffffffffffffffffff\n      and\n      0xffffffffffffffffffffffffffffffffffffffff\n      and\n      dup2\n      mstore\n      0x20\n      add\n      swap1\n      dup2\n      mstore\n      0x20\n      add\n      0x00\n      keccak256\n        /* \"Contracts/Storage.sol\":1175:1176  i */\n      dup3\n        /* \"Contracts/Storage.sol\":1152:1177  accessList[msg.sender][i] */\n      dup2\n      sload\n      dup2\n      lt\n      tag_36\n      jumpi\n      tag_37\n      tag_38\n      jump\t// in\n    tag_37:\n    tag_36:\n      swap1\n      0x00\n      mstore\n      keccak256(0x00, 0x20)\n      add\n        /* \"Contracts/Storage.sol\":1152:1182  accessList[msg.sender][i].user */\n      0x00\n      add\n      0x00\n      swap1\n      sload\n      swap1\n      0x0100\n      exp\n      swap1\n      div\n      0xffffffffffffffffffffffffffffffffffffffff\n      and\n        /* \"Contracts/Storage.sol\":1152:1188  accessList[msg.sender][i].user==user */\n      0xffffffffffffffffffffffffffffffffffffffff\n      and\n      sub\n        /* \"Contracts/Storage.sol\":1149:1270  if(accessList[msg.sender][i].user==user){... */\n      tag_40\n      jumpi\n        /* \"Contracts/Storage.sol\":1245:1250  false */\n      0x00\n        /* \"Contracts/Storage.sol\":1212:1222  accessList */\n      0x01\n        /* \"Contracts/Storage.sol\":1212:1234  accessList[msg.sender] */\n      0x00\n        /* \"Contracts/Storage.sol\":1223:1233  msg.sender */\n      caller\n        /* \"Contracts/Storage.sol\":1212:1234  accessList[msg.sender] */\n      0xffffffffffffffffffffffffffffffffffffffff\n      and\n      0xffffffffffffffffffffffffffffffffffffffff\n      and\n      dup2\n      mstore\n      0x20\n      add\n      swap1\n      dup2\n      mstore\n      0x20\n      add\n      0x00\n      keccak256\n        /* \"Contracts/Storage.sol\":1235:1236  i */\n      dup3\n        /* \"Contracts/Storage.sol\":1212:1237  accessList[msg.sender][i] */\n      dup2\n      sload\n      dup2\n      lt\n      tag_41\n      jumpi\n      tag_42\n      tag_38\n      jump\t// in\n    tag_42:\n    tag_41:\n      swap1\n      0x00\n      mstore\n      keccak256(0x00, 0x20)\n      add\n        /* \"Contracts/Storage.sol\":1212:1244  accessList[msg.sender][i].access */\n      0x00\n      add\n      0x14\n        /* \"Contracts/Storage.sol\":1212:1250  accessList[msg.sender][i].access=false */\n      0x0100\n      exp\n      dup2\n      sload\n      dup2\n      0xff\n      mul\n      not\n      and\n      swap1\n      dup4\n      iszero\n      iszero\n      mul\n      or\n      swap1\n      sstore\n      pop\n        /* \"Contracts/Storage.sol\":1149:1270  if(accessList[msg.sender][i].user==user){... */\n    tag_40:\n        /* \"Contracts/Storage.sol\":1126:1129  i++ */\n      dup1\n      dup1\n      0x01\n      add\n      swap2\n      pop\n      pop\n        /* \"Contracts/Storage.sol\":1081:1285  for(uint i=0;i<accessList[msg.sender].length;i++){... */\n      jump(tag_33)\n    tag_34:\n      pop\n        /* \"Contracts/Storage.sol\":975:1292  function disallow(address user) public {... */\n      pop\n      jump\t// out\n        /* \"Contracts/Storage.sol\":1510:1617  function shareAccess() public view returns(Access[] memory){... */\n    tag_17:\n        /* \"Contracts/Storage.sol\":1553:1568  Access[] memory */\n      0x60\n        /* \"Contracts/Storage.sol\":1587:1597  accessList */\n      0x01\n        /* \"Contracts/Storage.sol\":1587:1609  accessList[msg.sender] */\n      0x00\n        /* \"Contracts/Storage.sol\":1598:1608  msg.sender */\n      caller\n        /* \"Contracts/Storage.sol\":1587:1609  accessList[msg.sender] */\n      0xffffffffffffffffffffffffffffffffffffffff\n      and\n      0xffffffffffffffffffffffffffffffffffffffff\n      and\n      dup2\n      mstore\n      0x20\n      add\n      swap1\n      dup2\n      mstore\n      0x20\n      add\n      0x00\n      keccak256\n        /* \"Contracts/Storage.sol\":1580:1609  return accessList[msg.sender] */\n      dup1\n      sload\n      dup1\n      0x20\n      mul\n      0x20\n      add\n      mload(0x40)\n      swap1\n      dup2\n      add\n      0x40\n      mstore\n      dup1\n      swap3\n      swap2\n      swap1\n      dup2\n      dup2\n      mstore\n      0x20\n      add\n      0x00\n      swap1\n    tag_45:\n      dup3\n      dup3\n      lt\n      iszero\n      tag_46\n      jumpi\n      dup4\n      dup3\n      swap1\n      0x00\n      mstore\n      keccak256(0x00, 0x20)\n      add\n      mload(0x40)\n      dup1\n      0x40\n      add\n      0x40\n      mstore\n      swap1\n      dup2\n      0x00\n      dup3\n      add\n      0x00\n      swap1\n      sload\n      swap1\n      0x0100\n      exp\n      swap1\n      div\n      0xffffffffffffffffffffffffffffffffffffffff\n      and\n      0xffffffffffffffffffffffffffffffffffffffff\n      and\n      0xffffffffffffffffffffffffffffffffffffffff\n      and\n      dup2\n      mstore\n      0x20\n      add\n      0x00\n      dup3\n      add\n      0x14\n      swap1\n      sload\n      swap1\n      0x0100\n      exp\n      swap1\n      div\n      0xff\n      and\n      iszero\n      iszero\n      iszero\n      iszero\n      dup2\n      mstore\n      pop\n      pop\n      dup2\n      mstore\n      0x20\n      add\n      swap1\n      0x01\n      add\n      swap1\n      jump(tag_45)\n    tag_46:\n      pop\n      pop\n      pop\n      pop\n      swap1\n      pop\n        /* \"Contracts/Storage.sol\":1510:1617  function shareAccess() public view returns(Access[] memory){... */\n      swap1\n      jump\t// out\n        /* \"Contracts/Storage.sol\":1300:1502  function display(address _user) external view returns(string[] memory){... */\n    tag_22:\n        /* \"Contracts/Storage.sol\":1354:1369  string[] memory */\n      0x60\n        /* \"Contracts/Storage.sol\":1398:1408  msg.sender */\n      caller\n        /* \"Contracts/Storage.sol\":1389:1408  _user == msg.sender */\n      0xffffffffffffffffffffffffffffffffffffffff\n      and\n        /* \"Contracts/Storage.sol\":1389:1394  _user */\n      dup3\n        /* \"Contracts/Storage.sol\":1389:1408  _user == msg.sender */\n      0xffffffffffffffffffffffffffffffffffffffff\n      and\n      eq\n        /* \"Contracts/Storage.sol\":1389:1440  _user == msg.sender || ownership[_user][msg.sender] */\n      dup1\n      tag_49\n      jumpi\n      pop\n        /* \"Contracts/Storage.sol\":1412:1421  ownership */\n      0x02\n        /* \"Contracts/Storage.sol\":1412:1428  ownership[_user] */\n      0x00\n        /* \"Contracts/Storage.sol\":1422:1427  _user */\n      dup4\n        /* \"Contracts/Storage.sol\":1412:1428  ownership[_user] */\n      0xffffffffffffffffffffffffffffffffffffffff\n      and\n      0xffffffffffffffffffffffffffffffffffffffff\n      and\n      dup2\n      mstore\n      0x20\n      add\n      swap1\n      dup2\n      mstore\n      0x20\n      add\n      0x00\n      keccak256\n        /* \"Contracts/Storage.sol\":1412:1440  ownership[_user][msg.sender] */\n      0x00\n        /* \"Contracts/Storage.sol\":1429:1439  msg.sender */\n      caller\n        /* \"Contracts/Storage.sol\":1412:1440  ownership[_user][msg.sender] */\n      0xffffffffffffffffffffffffffffffffffffffff\n      and\n      0xffffffffffffffffffffffffffffffffffffffff\n      and\n      dup2\n      mstore\n      0x20\n      add\n      swap1\n      dup2\n      mstore\n      0x20\n      add\n      0x00\n      keccak256\n      0x00\n      swap1\n      sload\n      swap1\n      0x0100\n      exp\n      swap1\n      div\n      0xff\n      and\n        /* \"Contracts/Storage.sol\":1389:1440  _user == msg.sender || ownership[_user][msg.sender] */\n    tag_49:\n        /* \"Contracts/Storage.sol\":1381:1464  require(_user == msg.sender || ownership[_user][msg.sender],\"Unauthorized Access!\") */\n      tag_50\n      jumpi\n      mload(0x40)\n      0x08c379a000000000000000000000000000000000000000000000000000000000\n      dup2\n      mstore\n      0x04\n      add\n      tag_51\n      swap1\n      tag_52\n      jump\t// in\n    tag_51:\n      mload(0x40)\n      dup1\n      swap2\n      sub\n      swap1\n      revert\n    tag_50:\n        /* \"Contracts/Storage.sol\":1482:1487  value */\n      0x00\n        /* \"Contracts/Storage.sol\":1482:1494  value[_user] */\n      0x00\n        /* \"Contracts/Storage.sol\":1488:1493  _user */\n      dup4\n        /* \"Contracts/Storage.sol\":1482:1494  value[_user] */\n      0xffffffffffffffffffffffffffffffffffffffff\n      and\n      0xffffffffffffffffffffffffffffffffffffffff\n      and\n      dup2\n      mstore\n      0x20\n      add\n      swap1\n      dup2\n      mstore\n      0x20\n      add\n      0x00\n      keccak256\n        /* \"Contracts/Storage.sol\":1475:1494  return value[_user] */\n      dup1\n      sload\n      dup1\n      0x20\n      mul\n      0x20\n      add\n      mload(0x40)\n      swap1\n      dup2\n      add\n      0x40\n      mstore\n      dup1\n      swap3\n      swap2\n      swap1\n      dup2\n      dup2\n      mstore\n      0x20\n      add\n      0x00\n      swap1\n    tag_53:\n      dup3\n      dup3\n      lt\n      iszero\n      tag_54\n      jumpi\n      dup4\n      dup3\n      swap1\n      0x00\n      mstore\n      keccak256(0x00, 0x20)\n      add\n      dup1\n      sload\n      tag_56\n      swap1\n      tag_57\n      jump\t// in\n    tag_56:\n      dup1\n      0x1f\n      add\n      0x20\n      dup1\n      swap2\n      div\n      mul\n      0x20\n      add\n      mload(0x40)\n      swap1\n      dup2\n      add\n      0x40\n      mstore\n      dup1\n      swap3\n      swap2\n      swap1\n      dup2\n      dup2\n      mstore\n      0x20\n      add\n      dup3\n      dup1\n      sload\n      tag_58\n      swap1\n      tag_57\n      jump\t// in\n    tag_58:\n      dup1\n      iszero\n      tag_59\n      jumpi\n      dup1\n      0x1f\n      lt\n      tag_60\n      jumpi\n      0x0100\n      dup1\n      dup4\n      sload\n      div\n      mul\n      dup4\n      mstore\n      swap2\n      0x20\n      add\n      swap2\n      jump(tag_59)\n    tag_60:\n      dup3\n      add\n      swap2\n      swap1\n      0x00\n      mstore\n      keccak256(0x00, 0x20)\n      swap1\n    tag_61:\n      dup2\n      sload\n      dup2\n      mstore\n      swap1\n      0x01\n      add\n      swap1\n      0x20\n      add\n      dup1\n      dup4\n      gt\n      tag_61\n      jumpi\n      dup3\n      swap1\n      sub\n      0x1f\n      and\n      dup3\n      add\n      swap2\n    tag_59:\n      pop\n      pop\n      pop\n      pop\n      pop\n      dup2\n      mstore\n      0x20\n      add\n      swap1\n      0x01\n      add\n      swap1\n      jump(tag_53)\n    tag_54:\n      pop\n      pop\n      pop\n      pop\n      swap1\n      pop\n        /* \"Contracts/Storage.sol\":1300:1502  function display(address _user) external view returns(string[] memory){... */\n      swap2\n      swap1\n      pop\n      jump\t// out\n        /* \"Contracts/Storage.sol\":472:967  function allow(address user) external {... */\n    tag_27:\n        /* \"Contracts/Storage.sol\":551:555  true */\n      0x01\n        /* \"Contracts/Storage.sol\":521:530  ownership */\n      0x02\n        /* \"Contracts/Storage.sol\":521:542  ownership[msg.sender] */\n      0x00\n        /* \"Contracts/Storage.sol\":531:541  msg.sender */\n      caller\n        /* \"Contracts/Storage.sol\":521:542  ownership[msg.sender] */\n      0xffffffffffffffffffffffffffffffffffffffff\n      and\n      0xffffffffffffffffffffffffffffffffffffffff\n      and\n      dup2\n      mstore\n      0x20\n      add\n      swap1\n      dup2\n      mstore\n      0x20\n      add\n      0x00\n      keccak256\n        /* \"Contracts/Storage.sol\":521:548  ownership[msg.sender][user] */\n      0x00\n        /* \"Contracts/Storage.sol\":543:547  user */\n      dup4\n        /* \"Contracts/Storage.sol\":521:548  ownership[msg.sender][user] */\n      0xffffffffffffffffffffffffffffffffffffffff\n      and\n      0xffffffffffffffffffffffffffffffffffffffff\n      and\n      dup2\n      mstore\n      0x20\n      add\n      swap1\n      dup2\n      mstore\n      0x20\n      add\n      0x00\n      keccak256\n      0x00\n        /* \"Contracts/Storage.sol\":521:555  ownership[msg.sender][user] = true */\n      0x0100\n      exp\n      dup2\n      sload\n      dup2\n      0xff\n      mul\n      not\n      and\n      swap1\n      dup4\n      iszero\n      iszero\n      mul\n      or\n      swap1\n      sstore\n      pop\n        /* \"Contracts/Storage.sol\":571:583  previousData */\n      0x03\n        /* \"Contracts/Storage.sol\":571:595  previousData[msg.sender] */\n      0x00\n        /* \"Contracts/Storage.sol\":584:594  msg.sender */\n      caller\n        /* \"Contracts/Storage.sol\":571:595  previousData[msg.sender] */\n      0xffffffffffffffffffffffffffffffffffffffff\n      and\n      0xffffffffffffffffffffffffffffffffffffffff\n      and\n      dup2\n      mstore\n      0x20\n      add\n      swap1\n      dup2\n      mstore\n      0x20\n      add\n      0x00\n      keccak256\n        /* \"Contracts/Storage.sol\":571:601  previousData[msg.sender][user] */\n      0x00\n        /* \"Contracts/Storage.sol\":596:600  user */\n      dup3\n        /* \"Contracts/Storage.sol\":571:601  previousData[msg.sender][user] */\n      0xffffffffffffffffffffffffffffffffffffffff\n      and\n      0xffffffffffffffffffffffffffffffffffffffff\n      and\n      dup2\n      mstore\n      0x20\n      add\n      swap1\n      dup2\n      mstore\n      0x20\n      add\n      0x00\n      keccak256\n      0x00\n      swap1\n      sload\n      swap1\n      0x0100\n      exp\n      swap1\n      div\n      0xff\n      and\n        /* \"Contracts/Storage.sol\":568:960  if(previousData[msg.sender][user]){... */\n      iszero\n      tag_63\n      jumpi\n        /* \"Contracts/Storage.sol\":621:627  uint i */\n      0x00\n        /* \"Contracts/Storage.sol\":628:629  0 */\n      0x00\n        /* \"Contracts/Storage.sol\":621:629  uint i=0 */\n      swap1\n      pop\n        /* \"Contracts/Storage.sol\":617:820  for(uint i=0;i<accessList[msg.sender].length;i++){... */\n    tag_64:\n        /* \"Contracts/Storage.sol\":632:642  accessList */\n      0x01\n        /* \"Contracts/Storage.sol\":632:654  accessList[msg.sender] */\n      0x00\n        /* \"Contracts/Storage.sol\":643:653  msg.sender */\n      caller\n        /* \"Contracts/Storage.sol\":632:654  accessList[msg.sender] */\n      0xffffffffffffffffffffffffffffffffffffffff\n      and\n      0xffffffffffffffffffffffffffffffffffffffff\n      and\n      dup2\n      mstore\n      0x20\n      add\n      swap1\n      dup2\n      mstore\n      0x20\n      add\n      0x00\n      keccak256\n        /* \"Contracts/Storage.sol\":632:661  accessList[msg.sender].length */\n      dup1\n      sload\n      swap1\n      pop\n        /* \"Contracts/Storage.sol\":630:631  i */\n      dup2\n        /* \"Contracts/Storage.sol\":630:661  i<accessList[msg.sender].length */\n      lt\n        /* \"Contracts/Storage.sol\":617:820  for(uint i=0;i<accessList[msg.sender].length;i++){... */\n      iszero\n      tag_65\n      jumpi\n        /* \"Contracts/Storage.sol\":720:724  user */\n      dup2\n        /* \"Contracts/Storage.sol\":688:724  accessList[msg.sender][i].user==user */\n      0xffffffffffffffffffffffffffffffffffffffff\n      and\n        /* \"Contracts/Storage.sol\":688:698  accessList */\n      0x01\n        /* \"Contracts/Storage.sol\":688:710  accessList[msg.sender] */\n      0x00\n        /* \"Contracts/Storage.sol\":699:709  msg.sender */\n      caller\n        /* \"Contracts/Storage.sol\":688:710  accessList[msg.sender] */\n      0xffffffffffffffffffffffffffffffffffffffff\n      and\n      0xffffffffffffffffffffffffffffffffffffffff\n      and\n      dup2\n      mstore\n      0x20\n      add\n      swap1\n      dup2\n      mstore\n      0x20\n      add\n      0x00\n      keccak256\n        /* \"Contracts/Storage.sol\":711:712  i */\n      dup3\n        /* \"Contracts/Storage.sol\":688:713  accessList[msg.sender][i] */\n      dup2\n      sload\n      dup2\n      lt\n      tag_67\n      jumpi\n      tag_68\n      tag_38\n      jump\t// in\n    tag_68:\n    tag_67:\n      swap1\n      0x00\n      mstore\n      keccak256(0x00, 0x20)\n      add\n        /* \"Contracts/Storage.sol\":688:718  accessList[msg.sender][i].user */\n      0x00\n      add\n      0x00\n      swap1\n      sload\n      swap1\n      0x0100\n      exp\n      swap1\n      div\n      0xffffffffffffffffffffffffffffffffffffffff\n      and\n        /* \"Contracts/Storage.sol\":688:724  accessList[msg.sender][i].user==user */\n      0xffffffffffffffffffffffffffffffffffffffff\n      and\n      sub\n        /* \"Contracts/Storage.sol\":685:805  if(accessList[msg.sender][i].user==user){... */\n      tag_70\n      jumpi\n        /* \"Contracts/Storage.sol\":781:785  true */\n      0x01\n        /* \"Contracts/Storage.sol\":748:758  accessList */\n      dup1\n        /* \"Contracts/Storage.sol\":748:770  accessList[msg.sender] */\n      0x00\n        /* \"Contracts/Storage.sol\":759:769  msg.sender */\n      caller\n        /* \"Contracts/Storage.sol\":748:770  accessList[msg.sender] */\n      0xffffffffffffffffffffffffffffffffffffffff\n      and\n      0xffffffffffffffffffffffffffffffffffffffff\n      and\n      dup2\n      mstore\n      0x20\n      add\n      swap1\n      dup2\n      mstore\n      0x20\n      add\n      0x00\n      keccak256\n        /* \"Contracts/Storage.sol\":771:772  i */\n      dup3\n        /* \"Contracts/Storage.sol\":748:773  accessList[msg.sender][i] */\n      dup2\n      sload\n      dup2\n      lt\n      tag_71\n      jumpi\n      tag_72\n      tag_38\n      jump\t// in\n    tag_72:\n    tag_71:\n      swap1\n      0x00\n      mstore\n      keccak256(0x00, 0x20)\n      add\n        /* \"Contracts/Storage.sol\":748:780  accessList[msg.sender][i].access */\n      0x00\n      add\n      0x14\n        /* \"Contracts/Storage.sol\":748:785  accessList[msg.sender][i].access=true */\n      0x0100\n      exp\n      dup2\n      sload\n      dup2\n      0xff\n      mul\n      not\n      and\n      swap1\n      dup4\n      iszero\n      iszero\n      mul\n      or\n      swap1\n      sstore\n      pop\n        /* \"Contracts/Storage.sol\":685:805  if(accessList[msg.sender][i].user==user){... */\n    tag_70:\n        /* \"Contracts/Storage.sol\":662:665  i++ */\n      dup1\n      dup1\n      0x01\n      add\n      swap2\n      pop\n      pop\n        /* \"Contracts/Storage.sol\":617:820  for(uint i=0;i<accessList[msg.sender].length;i++){... */\n      jump(tag_64)\n    tag_65:\n      pop\n        /* \"Contracts/Storage.sol\":568:960  if(previousData[msg.sender][user]){... */\n      jump(tag_74)\n    tag_63:\n        /* \"Contracts/Storage.sol\":850:860  accessList */\n      0x01\n        /* \"Contracts/Storage.sol\":850:872  accessList[msg.sender] */\n      0x00\n        /* \"Contracts/Storage.sol\":861:871  msg.sender */\n      caller\n        /* \"Contracts/Storage.sol\":850:872  accessList[msg.sender] */\n      0xffffffffffffffffffffffffffffffffffffffff\n      and\n      0xffffffffffffffffffffffffffffffffffffffff\n      and\n      dup2\n      mstore\n      0x20\n      add\n      swap1\n      dup2\n      mstore\n      0x20\n      add\n      0x00\n      keccak256\n        /* \"Contracts/Storage.sol\":878:895  Access(user,true) */\n      mload(0x40)\n      dup1\n      0x40\n      add\n      0x40\n      mstore\n      dup1\n        /* \"Contracts/Storage.sol\":885:889  user */\n      dup4\n        /* \"Contracts/Storage.sol\":878:895  Access(user,true) */\n      0xffffffffffffffffffffffffffffffffffffffff\n      and\n      dup2\n      mstore\n      0x20\n      add\n        /* \"Contracts/Storage.sol\":890:894  true */\n      0x01\n        /* \"Contracts/Storage.sol\":878:895  Access(user,true) */\n      iszero\n      iszero\n      dup2\n      mstore\n      pop\n        /* \"Contracts/Storage.sol\":850:896  accessList[msg.sender].push(Access(user,true)) */\n      swap1\n      dup1\n      0x01\n      dup2\n      sload\n      add\n      dup1\n      dup3\n      sstore\n      dup1\n      swap2\n      pop\n      pop\n      0x01\n      swap1\n      sub\n      swap1\n      0x00\n      mstore\n      keccak256(0x00, 0x20)\n      add\n      0x00\n      swap1\n      swap2\n      swap1\n      swap2\n      swap1\n      swap2\n      pop\n      0x00\n      dup3\n      add\n      mload\n      dup2\n      0x00\n      add\n      exp(0x0100, 0x00)\n      dup2\n      sload\n      dup2\n      0xffffffffffffffffffffffffffffffffffffffff\n      mul\n      not\n      and\n      swap1\n      dup4\n      0xffffffffffffffffffffffffffffffffffffffff\n      and\n      mul\n      or\n      swap1\n      sstore\n      pop\n      0x20\n      dup3\n      add\n      mload\n      dup2\n      0x00\n      add\n      exp(0x0100, 0x14)\n      dup2\n      sload\n      dup2\n      0xff\n      mul\n      not\n      and\n      swap1\n      dup4\n      iszero\n      iszero\n      mul\n      or\n      swap1\n      sstore\n      pop\n      pop\n      pop\n        /* \"Contracts/Storage.sol\":944:948  true */\n      0x01\n        /* \"Contracts/Storage.sol\":911:923  previousData */\n      0x03\n        /* \"Contracts/Storage.sol\":911:935  previousData[msg.sender] */\n      0x00\n        /* \"Contracts/Storage.sol\":924:934  msg.sender */\n      caller\n        /* \"Contracts/Storage.sol\":911:935  previousData[msg.sender] */\n      0xffffffffffffffffffffffffffffffffffffffff\n      and\n      0xffffffffffffffffffffffffffffffffffffffff\n      and\n      dup2\n      mstore\n      0x20\n      add\n      swap1\n      dup2\n      mstore\n      0x20\n      add\n      0x00\n      keccak256\n        /* \"Contracts/Storage.sol\":911:941  previousData[msg.sender][user] */\n      0x00\n        /* \"Contracts/Storage.sol\":936:940  user */\n      dup4\n        /* \"Contracts/Storage.sol\":911:941  previousData[msg.sender][user] */\n      0xffffffffffffffffffffffffffffffffffffffff\n      and\n      0xffffffffffffffffffffffffffffffffffffffff\n      and\n      dup2\n      mstore\n      0x20\n      add\n      swap1\n      dup2\n      mstore\n      0x20\n      add\n      0x00\n      keccak256\n      0x00\n        /* \"Contracts/Storage.sol\":911:948  previousData[msg.sender][user] = true */\n      0x0100\n      exp\n      dup2\n      sload\n      dup2\n      0xff\n      mul\n      not\n      and\n      swap1\n      dup4\n      iszero\n      iszero\n      mul\n      or\n      swap1\n      sstore\n      pop\n        /* \"Contracts/Storage.sol\":568:960  if(previousData[msg.sender][user]){... */\n    tag_74:\n        /* \"Contracts/Storage.sol\":472:967  function allow(address user) external {... */\n      pop\n      jump\t// out\n        /* \"#utility.yul\":7:82   */\n    tag_76:\n        /* \"#utility.yul\":40:46   */\n      0x00\n        /* \"#utility.yul\":73:75   */\n      0x40\n        /* \"#utility.yul\":67:76   */\n      mload\n        /* \"#utility.yul\":57:76   */\n      swap1\n      pop\n        /* \"#utility.yul\":7:82   */\n      swap1\n      jump\t// out\n        /* \"#utility.yul\":88:205   */\n    tag_77:\n        /* \"#utility.yul\":197:198   */\n      0x00\n        /* \"#utility.yul\":194:195   */\n      0x00\n        /* \"#utility.yul\":187:199   */\n      revert\n        /* \"#utility.yul\":211:328   */\n    tag_78:\n        /* \"#utility.yul\":320:321   */\n      0x00\n        /* \"#utility.yul\":317:318   */\n      0x00\n        /* \"#utility.yul\":310:322   */\n      revert\n        /* \"#utility.yul\":334:460   */\n    tag_79:\n        /* \"#utility.yul\":371:378   */\n      0x00\n        /* \"#utility.yul\":411:453   */\n      0xffffffffffffffffffffffffffffffffffffffff\n        /* \"#utility.yul\":404:409   */\n      dup3\n        /* \"#utility.yul\":400:454   */\n      and\n        /* \"#utility.yul\":389:454   */\n      swap1\n      pop\n        /* \"#utility.yul\":334:460   */\n      swap2\n      swap1\n      pop\n      jump\t// out\n        /* \"#utility.yul\":466:562   */\n    tag_80:\n        /* \"#utility.yul\":503:510   */\n      0x00\n        /* \"#utility.yul\":532:556   */\n      tag_139\n        /* \"#utility.yul\":550:555   */\n      dup3\n        /* \"#utility.yul\":532:556   */\n      tag_79\n      jump\t// in\n    tag_139:\n        /* \"#utility.yul\":521:556   */\n      swap1\n      pop\n        /* \"#utility.yul\":466:562   */\n      swap2\n      swap1\n      pop\n      jump\t// out\n        /* \"#utility.yul\":568:690   */\n    tag_81:\n        /* \"#utility.yul\":641:665   */\n      tag_141\n        /* \"#utility.yul\":659:664   */\n      dup2\n        /* \"#utility.yul\":641:665   */\n      tag_80\n      jump\t// in\n    tag_141:\n        /* \"#utility.yul\":634:639   */\n      dup2\n        /* \"#utility.yul\":631:666   */\n      eq\n        /* \"#utility.yul\":621:684   */\n      tag_142\n      jumpi\n        /* \"#utility.yul\":680:681   */\n      0x00\n        /* \"#utility.yul\":677:678   */\n      0x00\n        /* \"#utility.yul\":670:682   */\n      revert\n        /* \"#utility.yul\":621:684   */\n    tag_142:\n        /* \"#utility.yul\":568:690   */\n      pop\n      jump\t// out\n        /* \"#utility.yul\":696:835   */\n    tag_82:\n        /* \"#utility.yul\":742:747   */\n      0x00\n        /* \"#utility.yul\":780:786   */\n      dup2\n        /* \"#utility.yul\":767:787   */\n      calldataload\n        /* \"#utility.yul\":758:787   */\n      swap1\n      pop\n        /* \"#utility.yul\":796:829   */\n      tag_144\n        /* \"#utility.yul\":823:828   */\n      dup2\n        /* \"#utility.yul\":796:829   */\n      tag_81\n      jump\t// in\n    tag_144:\n        /* \"#utility.yul\":696:835   */\n      swap3\n      swap2\n      pop\n      pop\n      jump\t// out\n        /* \"#utility.yul\":841:958   */\n    tag_83:\n        /* \"#utility.yul\":950:951   */\n      0x00\n        /* \"#utility.yul\":947:948   */\n      0x00\n        /* \"#utility.yul\":940:952   */\n      revert\n        /* \"#utility.yul\":964:1081   */\n    tag_84:\n        /* \"#utility.yul\":1073:1074   */\n      0x00\n        /* \"#utility.yul\":1070:1071   */\n      0x00\n        /* \"#utility.yul\":1063:1075   */\n      revert\n        /* \"#utility.yul\":1087:1189   */\n    tag_85:\n        /* \"#utility.yul\":1128:1134   */\n      0x00\n        /* \"#utility.yul\":1179:1181   */\n      0x1f\n        /* \"#utility.yul\":1175:1182   */\n      not\n        /* \"#utility.yul\":1170:1172   */\n      0x1f\n        /* \"#utility.yul\":1163:1168   */\n      dup4\n        /* \"#utility.yul\":1159:1173   */\n      add\n        /* \"#utility.yul\":1155:1183   */\n      and\n        /* \"#utility.yul\":1145:1183   */\n      swap1\n      pop\n        /* \"#utility.yul\":1087:1189   */\n      swap2\n      swap1\n      pop\n      jump\t// out\n        /* \"#utility.yul\":1195:1375   */\n    tag_86:\n        /* \"#utility.yul\":1243:1320   */\n      0x4e487b7100000000000000000000000000000000000000000000000000000000\n        /* \"#utility.yul\":1240:1241   */\n      0x00\n        /* \"#utility.yul\":1233:1321   */\n      mstore\n        /* \"#utility.yul\":1340:1344   */\n      0x41\n        /* \"#utility.yul\":1337:1338   */\n      0x04\n        /* \"#utility.yul\":1330:1345   */\n      mstore\n        /* \"#utility.yul\":1364:1368   */\n      0x24\n        /* \"#utility.yul\":1361:1362   */\n      0x00\n        /* \"#utility.yul\":1354:1369   */\n      revert\n        /* \"#utility.yul\":1381:1662   */\n    tag_87:\n        /* \"#utility.yul\":1464:1491   */\n      tag_150\n        /* \"#utility.yul\":1486:1490   */\n      dup3\n        /* \"#utility.yul\":1464:1491   */\n      tag_85\n      jump\t// in\n    tag_150:\n        /* \"#utility.yul\":1456:1462   */\n      dup2\n        /* \"#utility.yul\":1452:1492   */\n      add\n        /* \"#utility.yul\":1594:1600   */\n      dup2\n        /* \"#utility.yul\":1582:1592   */\n      dup2\n        /* \"#utility.yul\":1579:1601   */\n      lt\n        /* \"#utility.yul\":1558:1576   */\n      0xffffffffffffffff\n        /* \"#utility.yul\":1546:1556   */\n      dup3\n        /* \"#utility.yul\":1543:1577   */\n      gt\n        /* \"#utility.yul\":1540:1602   */\n      or\n        /* \"#utility.yul\":1537:1625   */\n      iszero\n      tag_151\n      jumpi\n        /* \"#utility.yul\":1605:1623   */\n      tag_152\n      tag_86\n      jump\t// in\n    tag_152:\n        /* \"#utility.yul\":1537:1625   */\n    tag_151:\n        /* \"#utility.yul\":1645:1655   */\n      dup1\n        /* \"#utility.yul\":1641:1643   */\n      0x40\n        /* \"#utility.yul\":1634:1656   */\n      mstore\n        /* \"#utility.yul\":1424:1662   */\n      pop\n        /* \"#utility.yul\":1381:1662   */\n      pop\n      pop\n      jump\t// out\n        /* \"#utility.yul\":1668:1797   */\n    tag_88:\n        /* \"#utility.yul\":1702:1708   */\n      0x00\n        /* \"#utility.yul\":1729:1749   */\n      tag_154\n      tag_76\n      jump\t// in\n    tag_154:\n        /* \"#utility.yul\":1719:1749   */\n      swap1\n      pop\n        /* \"#utility.yul\":1758:1791   */\n      tag_155\n        /* \"#utility.yul\":1786:1790   */\n      dup3\n        /* \"#utility.yul\":1778:1784   */\n      dup3\n        /* \"#utility.yul\":1758:1791   */\n      tag_87\n      jump\t// in\n    tag_155:\n        /* \"#utility.yul\":1668:1797   */\n      swap2\n      swap1\n      pop\n      jump\t// out\n        /* \"#utility.yul\":1803:2111   */\n    tag_89:\n        /* \"#utility.yul\":1865:1869   */\n      0x00\n        /* \"#utility.yul\":1955:1973   */\n      0xffffffffffffffff\n        /* \"#utility.yul\":1947:1953   */\n      dup3\n        /* \"#utility.yul\":1944:1974   */\n      gt\n        /* \"#utility.yul\":1941:1997   */\n      iszero\n      tag_157\n      jumpi\n        /* \"#utility.yul\":1977:1995   */\n      tag_158\n      tag_86\n      jump\t// in\n    tag_158:\n        /* \"#utility.yul\":1941:1997   */\n    tag_157:\n        /* \"#utility.yul\":2015:2044   */\n      tag_159\n        /* \"#utility.yul\":2037:2043   */\n      dup3\n        /* \"#utility.yul\":2015:2044   */\n      tag_85\n      jump\t// in\n    tag_159:\n        /* \"#utility.yul\":2007:2044   */\n      swap1\n      pop\n        /* \"#utility.yul\":2099:2103   */\n      0x20\n        /* \"#utility.yul\":2093:2097   */\n      dup2\n        /* \"#utility.yul\":2089:2104   */\n      add\n        /* \"#utility.yul\":2081:2104   */\n      swap1\n      pop\n        /* \"#utility.yul\":1803:2111   */\n      swap2\n      swap1\n      pop\n      jump\t// out\n        /* \"#utility.yul\":2117:2265   */\n    tag_90:\n        /* \"#utility.yul\":2215:2221   */\n      dup3\n        /* \"#utility.yul\":2210:2213   */\n      dup2\n        /* \"#utility.yul\":2205:2208   */\n      dup4\n        /* \"#utility.yul\":2192:2222   */\n      calldatacopy\n        /* \"#utility.yul\":2256:2257   */\n      0x00\n        /* \"#utility.yul\":2247:2253   */\n      dup4\n        /* \"#utility.yul\":2242:2245   */\n      dup4\n        /* \"#utility.yul\":2238:2254   */\n      add\n        /* \"#utility.yul\":2231:2258   */\n      mstore\n        /* \"#utility.yul\":2117:2265   */\n      pop\n      pop\n      pop\n      jump\t// out\n        /* \"#utility.yul\":2271:2696   */\n    tag_91:\n        /* \"#utility.yul\":2349:2354   */\n      0x00\n        /* \"#utility.yul\":2374:2440   */\n      tag_162\n        /* \"#utility.yul\":2390:2439   */\n      tag_163\n        /* \"#utility.yul\":2432:2438   */\n      dup5\n        /* \"#utility.yul\":2390:2439   */\n      tag_89\n      jump\t// in\n    tag_163:\n        /* \"#utility.yul\":2374:2440   */\n      tag_88\n      jump\t// in\n    tag_162:\n        /* \"#utility.yul\":2365:2440   */\n      swap1\n      pop\n        /* \"#utility.yul\":2463:2469   */\n      dup3\n        /* \"#utility.yul\":2456:2461   */\n      dup2\n        /* \"#utility.yul\":2449:2470   */\n      mstore\n        /* \"#utility.yul\":2501:2505   */\n      0x20\n        /* \"#utility.yul\":2494:2499   */\n      dup2\n        /* \"#utility.yul\":2490:2506   */\n      add\n        /* \"#utility.yul\":2539:2542   */\n      dup5\n        /* \"#utility.yul\":2530:2536   */\n      dup5\n        /* \"#utility.yul\":2525:2528   */\n      dup5\n        /* \"#utility.yul\":2521:2537   */\n      add\n        /* \"#utility.yul\":2518:2543   */\n      gt\n        /* \"#utility.yul\":2515:2627   */\n      iszero\n      tag_164\n      jumpi\n        /* \"#utility.yul\":2546:2625   */\n      tag_165\n      tag_84\n      jump\t// in\n    tag_165:\n        /* \"#utility.yul\":2515:2627   */\n    tag_164:\n        /* \"#utility.yul\":2636:2690   */\n      tag_166\n        /* \"#utility.yul\":2683:2689   */\n      dup5\n        /* \"#utility.yul\":2678:2681   */\n      dup3\n        /* \"#utility.yul\":2673:2676   */\n      dup6\n        /* \"#utility.yul\":2636:2690   */\n      tag_90\n      jump\t// in\n    tag_166:\n        /* \"#utility.yul\":2355:2696   */\n      pop\n        /* \"#utility.yul\":2271:2696   */\n      swap4\n      swap3\n      pop\n      pop\n      pop\n      jump\t// out\n        /* \"#utility.yul\":2716:3056   */\n    tag_92:\n        /* \"#utility.yul\":2772:2777   */\n      0x00\n        /* \"#utility.yul\":2821:2824   */\n      dup3\n        /* \"#utility.yul\":2814:2818   */\n      0x1f\n        /* \"#utility.yul\":2806:2812   */\n      dup4\n        /* \"#utility.yul\":2802:2819   */\n      add\n        /* \"#utility.yul\":2798:2825   */\n      slt\n        /* \"#utility.yul\":2788:2910   */\n      tag_168\n      jumpi\n        /* \"#utility.yul\":2829:2908   */\n      tag_169\n      tag_83\n      jump\t// in\n    tag_169:\n        /* \"#utility.yul\":2788:2910   */\n    tag_168:\n        /* \"#utility.yul\":2946:2952   */\n      dup2\n        /* \"#utility.yul\":2933:2953   */\n      calldataload\n        /* \"#utility.yul\":2971:3050   */\n      tag_170\n        /* \"#utility.yul\":3046:3049   */\n      dup5\n        /* \"#utility.yul\":3038:3044   */\n      dup3\n        /* \"#utility.yul\":3031:3035   */\n      0x20\n        /* \"#utility.yul\":3023:3029   */\n      dup7\n        /* \"#utility.yul\":3019:3036   */\n      add\n        /* \"#utility.yul\":2971:3050   */\n      tag_91\n      jump\t// in\n    tag_170:\n        /* \"#utility.yul\":2962:3050   */\n      swap2\n      pop\n        /* \"#utility.yul\":2778:3056   */\n      pop\n        /* \"#utility.yul\":2716:3056   */\n      swap3\n      swap2\n      pop\n      pop\n      jump\t// out\n        /* \"#utility.yul\":3062:3716   */\n    tag_10:\n        /* \"#utility.yul\":3140:3146   */\n      0x00\n        /* \"#utility.yul\":3148:3154   */\n      0x00\n        /* \"#utility.yul\":3197:3199   */\n      0x40\n        /* \"#utility.yul\":3185:3194   */\n      dup4\n        /* \"#utility.yul\":3176:3183   */\n      dup6\n        /* \"#utility.yul\":3172:3195   */\n      sub\n        /* \"#utility.yul\":3168:3200   */\n      slt\n        /* \"#utility.yul\":3165:3284   */\n      iszero\n      tag_172\n      jumpi\n        /* \"#utility.yul\":3203:3282   */\n      tag_173\n      tag_77\n      jump\t// in\n    tag_173:\n        /* \"#utility.yul\":3165:3284   */\n    tag_172:\n        /* \"#utility.yul\":3323:3324   */\n      0x00\n        /* \"#utility.yul\":3348:3401   */\n      tag_174\n        /* \"#utility.yul\":3393:3400   */\n      dup6\n        /* \"#utility.yul\":3384:3390   */\n      dup3\n        /* \"#utility.yul\":3373:3382   */\n      dup7\n        /* \"#utility.yul\":3369:3391   */\n      add\n        /* \"#utility.yul\":3348:3401   */\n      tag_82\n      jump\t// in\n    tag_174:\n        /* \"#utility.yul\":3338:3401   */\n      swap3\n      pop\n        /* \"#utility.yul\":3294:3411   */\n      pop\n        /* \"#utility.yul\":3478:3480   */\n      0x20\n        /* \"#utility.yul\":3467:3476   */\n      dup4\n        /* \"#utility.yul\":3463:3481   */\n      add\n        /* \"#utility.yul\":3450:3482   */\n      calldataload\n        /* \"#utility.yul\":3509:3527   */\n      0xffffffffffffffff\n        /* \"#utility.yul\":3501:3507   */\n      dup2\n        /* \"#utility.yul\":3498:3528   */\n      gt\n        /* \"#utility.yul\":3495:3612   */\n      iszero\n      tag_175\n      jumpi\n        /* \"#utility.yul\":3531:3610   */\n      tag_176\n      tag_78\n      jump\t// in\n    tag_176:\n        /* \"#utility.yul\":3495:3612   */\n    tag_175:\n        /* \"#utility.yul\":3636:3699   */\n      tag_177\n        /* \"#utility.yul\":3691:3698   */\n      dup6\n        /* \"#utility.yul\":3682:3688   */\n      dup3\n        /* \"#utility.yul\":3671:3680   */\n      dup7\n        /* \"#utility.yul\":3667:3689   */\n      add\n        /* \"#utility.yul\":3636:3699   */\n      tag_92\n      jump\t// in\n    tag_177:\n        /* \"#utility.yul\":3626:3699   */\n      swap2\n      pop\n        /* \"#utility.yul\":3421:3709   */\n      pop\n        /* \"#utility.yul\":3062:3716   */\n      swap3\n      pop\n      swap3\n      swap1\n      pop\n      jump\t// out\n        /* \"#utility.yul\":3722:4051   */\n    tag_14:\n        /* \"#utility.yul\":3781:3787   */\n      0x00\n        /* \"#utility.yul\":3830:3832   */\n      0x20\n        /* \"#utility.yul\":3818:3827   */\n      dup3\n        /* \"#utility.yul\":3809:3816   */\n      dup5\n        /* \"#utility.yul\":3805:3828   */\n      sub\n        /* \"#utility.yul\":3801:3833   */\n      slt\n        /* \"#utility.yul\":3798:3917   */\n      iszero\n      tag_179\n      jumpi\n        /* \"#utility.yul\":3836:3915   */\n      tag_180\n      tag_77\n      jump\t// in\n    tag_180:\n        /* \"#utility.yul\":3798:3917   */\n    tag_179:\n        /* \"#utility.yul\":3956:3957   */\n      0x00\n        /* \"#utility.yul\":3981:4034   */\n      tag_181\n        /* \"#utility.yul\":4026:4033   */\n      dup5\n        /* \"#utility.yul\":4017:4023   */\n      dup3\n        /* \"#utility.yul\":4006:4015   */\n      dup6\n        /* \"#utility.yul\":4002:4024   */\n      add\n        /* \"#utility.yul\":3981:4034   */\n      tag_82\n      jump\t// in\n    tag_181:\n        /* \"#utility.yul\":3971:4034   */\n      swap2\n      pop\n        /* \"#utility.yul\":3927:4044   */\n      pop\n        /* \"#utility.yul\":3722:4051   */\n      swap3\n      swap2\n      pop\n      pop\n      jump\t// out\n        /* \"#utility.yul\":4057:4192   */\n    tag_93:\n        /* \"#utility.yul\":4145:4151   */\n      0x00\n        /* \"#utility.yul\":4179:4184   */\n      dup2\n        /* \"#utility.yul\":4173:4185   */\n      mload\n        /* \"#utility.yul\":4163:4185   */\n      swap1\n      pop\n        /* \"#utility.yul\":4057:4192   */\n      swap2\n      swap1\n      pop\n      jump\t// out\n        /* \"#utility.yul\":4198:4403   */\n    tag_94:\n        /* \"#utility.yul\":4318:4329   */\n      0x00\n        /* \"#utility.yul\":4352:4358   */\n      dup3\n        /* \"#utility.yul\":4347:4350   */\n      dup3\n        /* \"#utility.yul\":4340:4359   */\n      mstore\n        /* \"#utility.yul\":4392:4396   */\n      0x20\n        /* \"#utility.yul\":4387:4390   */\n      dup3\n        /* \"#utility.yul\":4383:4397   */\n      add\n        /* \"#utility.yul\":4368:4397   */\n      swap1\n      pop\n        /* \"#utility.yul\":4198:4403   */\n      swap3\n      swap2\n      pop\n      pop\n      jump\t// out\n        /* \"#utility.yul\":4409:4562   */\n    tag_95:\n        /* \"#utility.yul\":4497:4501   */\n      0x00\n        /* \"#utility.yul\":4520:4523   */\n      dup2\n        /* \"#utility.yul\":4512:4523   */\n      swap1\n      pop\n        /* \"#utility.yul\":4550:4554   */\n      0x20\n        /* \"#utility.yul\":4545:4548   */\n      dup3\n        /* \"#utility.yul\":4541:4555   */\n      add\n        /* \"#utility.yul\":4533:4555   */\n      swap1\n      pop\n        /* \"#utility.yul\":4409:4562   */\n      swap2\n      swap1\n      pop\n      jump\t// out\n        /* \"#utility.yul\":4568:4676   */\n    tag_96:\n        /* \"#utility.yul\":4645:4669   */\n      tag_186\n        /* \"#utility.yul\":4663:4668   */\n      dup2\n        /* \"#utility.yul\":4645:4669   */\n      tag_80\n      jump\t// in\n    tag_186:\n        /* \"#utility.yul\":4640:4643   */\n      dup3\n        /* \"#utility.yul\":4633:4670   */\n      mstore\n        /* \"#utility.yul\":4568:4676   */\n      pop\n      pop\n      jump\t// out\n        /* \"#utility.yul\":4682:4772   */\n    tag_97:\n        /* \"#utility.yul\":4716:4723   */\n      0x00\n        /* \"#utility.yul\":4759:4764   */\n      dup2\n        /* \"#utility.yul\":4752:4765   */\n      iszero\n        /* \"#utility.yul\":4745:4766   */\n      iszero\n        /* \"#utility.yul\":4734:4766   */\n      swap1\n      pop\n        /* \"#utility.yul\":4682:4772   */\n      swap2\n      swap1\n      pop\n      jump\t// out\n        /* \"#utility.yul\":4778:4877   */\n    tag_98:\n        /* \"#utility.yul\":4849:4870   */\n      tag_189\n        /* \"#utility.yul\":4864:4869   */\n      dup2\n        /* \"#utility.yul\":4849:4870   */\n      tag_97\n      jump\t// in\n    tag_189:\n        /* \"#utility.yul\":4844:4847   */\n      dup3\n        /* \"#utility.yul\":4837:4871   */\n      mstore\n        /* \"#utility.yul\":4778:4877   */\n      pop\n      pop\n      jump\t// out\n        /* \"#utility.yul\":4935:5420   */\n    tag_99:\n        /* \"#utility.yul\":5064:5068   */\n      0x40\n        /* \"#utility.yul\":5059:5062   */\n      dup3\n        /* \"#utility.yul\":5055:5069   */\n      add\n        /* \"#utility.yul\":5151:5155   */\n      0x00\n        /* \"#utility.yul\":5144:5149   */\n      dup3\n        /* \"#utility.yul\":5140:5156   */\n      add\n        /* \"#utility.yul\":5134:5157   */\n      mload\n        /* \"#utility.yul\":5170:5233   */\n      tag_191\n        /* \"#utility.yul\":5227:5231   */\n      0x00\n        /* \"#utility.yul\":5222:5225   */\n      dup6\n        /* \"#utility.yul\":5218:5232   */\n      add\n        /* \"#utility.yul\":5204:5216   */\n      dup3\n        /* \"#utility.yul\":5170:5233   */\n      tag_96\n      jump\t// in\n    tag_191:\n        /* \"#utility.yul\":5079:5243   */\n      pop\n        /* \"#utility.yul\":5327:5331   */\n      0x20\n        /* \"#utility.yul\":5320:5325   */\n      dup3\n        /* \"#utility.yul\":5316:5332   */\n      add\n        /* \"#utility.yul\":5310:5333   */\n      mload\n        /* \"#utility.yul\":5346:5403   */\n      tag_192\n        /* \"#utility.yul\":5397:5401   */\n      0x20\n        /* \"#utility.yul\":5392:5395   */\n      dup6\n        /* \"#utility.yul\":5388:5402   */\n      add\n        /* \"#utility.yul\":5374:5386   */\n      dup3\n        /* \"#utility.yul\":5346:5403   */\n      tag_98\n      jump\t// in\n    tag_192:\n        /* \"#utility.yul\":5253:5413   */\n      pop\n        /* \"#utility.yul\":5033:5420   */\n      pop\n        /* \"#utility.yul\":4935:5420   */\n      pop\n      pop\n      jump\t// out\n        /* \"#utility.yul\":5426:5689   */\n    tag_100:\n        /* \"#utility.yul\":5537:5547   */\n      0x00\n        /* \"#utility.yul\":5558:5646   */\n      tag_194\n        /* \"#utility.yul\":5642:5645   */\n      dup4\n        /* \"#utility.yul\":5634:5640   */\n      dup4\n        /* \"#utility.yul\":5558:5646   */\n      tag_99\n      jump\t// in\n    tag_194:\n        /* \"#utility.yul\":5678:5682   */\n      0x40\n        /* \"#utility.yul\":5673:5676   */\n      dup4\n        /* \"#utility.yul\":5669:5683   */\n      add\n        /* \"#utility.yul\":5655:5683   */\n      swap1\n      pop\n        /* \"#utility.yul\":5426:5689   */\n      swap3\n      swap2\n      pop\n      pop\n      jump\t// out\n        /* \"#utility.yul\":5695:5829   */\n    tag_101:\n        /* \"#utility.yul\":5786:5790   */\n      0x00\n        /* \"#utility.yul\":5818:5822   */\n      0x20\n        /* \"#utility.yul\":5813:5816   */\n      dup3\n        /* \"#utility.yul\":5809:5823   */\n      add\n        /* \"#utility.yul\":5801:5823   */\n      swap1\n      pop\n        /* \"#utility.yul\":5695:5829   */\n      swap2\n      swap1\n      pop\n      jump\t// out\n        /* \"#utility.yul\":5891:6791   */\n    tag_102:\n        /* \"#utility.yul\":6052:6055   */\n      0x00\n        /* \"#utility.yul\":6081:6156   */\n      tag_197\n        /* \"#utility.yul\":6150:6155   */\n      dup3\n        /* \"#utility.yul\":6081:6156   */\n      tag_93\n      jump\t// in\n    tag_197:\n        /* \"#utility.yul\":6172:6279   */\n      tag_198\n        /* \"#utility.yul\":6272:6278   */\n      dup2\n        /* \"#utility.yul\":6267:6270   */\n      dup6\n        /* \"#utility.yul\":6172:6279   */\n      tag_94\n      jump\t// in\n    tag_198:\n        /* \"#utility.yul\":6165:6279   */\n      swap4\n      pop\n        /* \"#utility.yul\":6303:6380   */\n      tag_199\n        /* \"#utility.yul\":6374:6379   */\n      dup4\n        /* \"#utility.yul\":6303:6380   */\n      tag_95\n      jump\t// in\n    tag_199:\n        /* \"#utility.yul\":6403:6410   */\n      dup1\n        /* \"#utility.yul\":6434:6435   */\n      0x00\n        /* \"#utility.yul\":6419:6766   */\n    tag_200:\n        /* \"#utility.yul\":6444:6450   */\n      dup4\n        /* \"#utility.yul\":6441:6442   */\n      dup2\n        /* \"#utility.yul\":6438:6451   */\n      lt\n        /* \"#utility.yul\":6419:6766   */\n      iszero\n      tag_202\n      jumpi\n        /* \"#utility.yul\":6520:6526   */\n      dup2\n        /* \"#utility.yul\":6514:6527   */\n      mload\n        /* \"#utility.yul\":6547:6652   */\n      tag_203\n        /* \"#utility.yul\":6648:6651   */\n      dup9\n        /* \"#utility.yul\":6633:6646   */\n      dup3\n        /* \"#utility.yul\":6547:6652   */\n      tag_100\n      jump\t// in\n    tag_203:\n        /* \"#utility.yul\":6540:6652   */\n      swap8\n      pop\n        /* \"#utility.yul\":6675:6756   */\n      tag_204\n        /* \"#utility.yul\":6749:6755   */\n      dup4\n        /* \"#utility.yul\":6675:6756   */\n      tag_101\n      jump\t// in\n    tag_204:\n        /* \"#utility.yul\":6665:6756   */\n      swap3\n      pop\n        /* \"#utility.yul\":6479:6766   */\n      pop\n        /* \"#utility.yul\":6466:6467   */\n      0x01\n        /* \"#utility.yul\":6463:6464   */\n      dup2\n        /* \"#utility.yul\":6459:6468   */\n      add\n        /* \"#utility.yul\":6454:6468   */\n      swap1\n      pop\n        /* \"#utility.yul\":6419:6766   */\n      jump(tag_200)\n    tag_202:\n        /* \"#utility.yul\":6423:6437   */\n      pop\n        /* \"#utility.yul\":6782:6785   */\n      dup6\n        /* \"#utility.yul\":6775:6785   */\n      swap4\n      pop\n        /* \"#utility.yul\":6057:6791   */\n      pop\n      pop\n      pop\n        /* \"#utility.yul\":5891:6791   */\n      swap3\n      swap2\n      pop\n      pop\n      jump\t// out\n        /* \"#utility.yul\":6797:7254   */\n    tag_19:\n        /* \"#utility.yul\":6982:6986   */\n      0x00\n        /* \"#utility.yul\":7020:7022   */\n      0x20\n        /* \"#utility.yul\":7009:7018   */\n      dup3\n        /* \"#utility.yul\":7005:7023   */\n      add\n        /* \"#utility.yul\":6997:7023   */\n      swap1\n      pop\n        /* \"#utility.yul\":7069:7078   */\n      dup2\n        /* \"#utility.yul\":7063:7067   */\n      dup2\n        /* \"#utility.yul\":7059:7079   */\n      sub\n        /* \"#utility.yul\":7055:7056   */\n      0x00\n        /* \"#utility.yul\":7044:7053   */\n      dup4\n        /* \"#utility.yul\":7040:7057   */\n      add\n        /* \"#utility.yul\":7033:7080   */\n      mstore\n        /* \"#utility.yul\":7097:7247   */\n      tag_206\n        /* \"#utility.yul\":7242:7246   */\n      dup2\n        /* \"#utility.yul\":7233:7239   */\n      dup5\n        /* \"#utility.yul\":7097:7247   */\n      tag_102\n      jump\t// in\n    tag_206:\n        /* \"#utility.yul\":7089:7247   */\n      swap1\n      pop\n        /* \"#utility.yul\":6797:7254   */\n      swap3\n      swap2\n      pop\n      pop\n      jump\t// out\n        /* \"#utility.yul\":7260:7384   */\n    tag_103:\n        /* \"#utility.yul\":7337:7343   */\n      0x00\n        /* \"#utility.yul\":7371:7376   */\n      dup2\n        /* \"#utility.yul\":7365:7377   */\n      mload\n        /* \"#utility.yul\":7355:7377   */\n      swap1\n      pop\n        /* \"#utility.yul\":7260:7384   */\n      swap2\n      swap1\n      pop\n      jump\t// out\n        /* \"#utility.yul\":7390:7584   */\n    tag_104:\n        /* \"#utility.yul\":7499:7510   */\n      0x00\n        /* \"#utility.yul\":7533:7539   */\n      dup3\n        /* \"#utility.yul\":7528:7531   */\n      dup3\n        /* \"#utility.yul\":7521:7540   */\n      mstore\n        /* \"#utility.yul\":7573:7577   */\n      0x20\n        /* \"#utility.yul\":7568:7571   */\n      dup3\n        /* \"#utility.yul\":7564:7578   */\n      add\n        /* \"#utility.yul\":7549:7578   */\n      swap1\n      pop\n        /* \"#utility.yul\":7390:7584   */\n      swap3\n      swap2\n      pop\n      pop\n      jump\t// out\n        /* \"#utility.yul\":7590:7732   */\n    tag_105:\n        /* \"#utility.yul\":7667:7671   */\n      0x00\n        /* \"#utility.yul\":7690:7693   */\n      dup2\n        /* \"#utility.yul\":7682:7693   */\n      swap1\n      pop\n        /* \"#utility.yul\":7720:7724   */\n      0x20\n        /* \"#utility.yul\":7715:7718   */\n      dup3\n        /* \"#utility.yul\":7711:7725   */\n      add\n        /* \"#utility.yul\":7703:7725   */\n      swap1\n      pop\n        /* \"#utility.yul\":7590:7732   */\n      swap2\n      swap1\n      pop\n      jump\t// out\n        /* \"#utility.yul\":7738:7837   */\n    tag_106:\n        /* \"#utility.yul\":7790:7796   */\n      0x00\n        /* \"#utility.yul\":7824:7829   */\n      dup2\n        /* \"#utility.yul\":7818:7830   */\n      mload\n        /* \"#utility.yul\":7808:7830   */\n      swap1\n      pop\n        /* \"#utility.yul\":7738:7837   */\n      swap2\n      swap1\n      pop\n      jump\t// out\n        /* \"#utility.yul\":7843:8002   */\n    tag_107:\n        /* \"#utility.yul\":7917:7928   */\n      0x00\n        /* \"#utility.yul\":7951:7957   */\n      dup3\n        /* \"#utility.yul\":7946:7949   */\n      dup3\n        /* \"#utility.yul\":7939:7958   */\n      mstore\n        /* \"#utility.yul\":7991:7995   */\n      0x20\n        /* \"#utility.yul\":7986:7989   */\n      dup3\n        /* \"#utility.yul\":7982:7996   */\n      add\n        /* \"#utility.yul\":7967:7996   */\n      swap1\n      pop\n        /* \"#utility.yul\":7843:8002   */\n      swap3\n      swap2\n      pop\n      pop\n      jump\t// out\n        /* \"#utility.yul\":8008:8147   */\n    tag_108:\n        /* \"#utility.yul\":8097:8103   */\n      dup3\n        /* \"#utility.yul\":8092:8095   */\n      dup2\n        /* \"#utility.yul\":8087:8090   */\n      dup4\n        /* \"#utility.yul\":8081:8104   */\n      mcopy\n        /* \"#utility.yul\":8138:8139   */\n      0x00\n        /* \"#utility.yul\":8129:8135   */\n      dup4\n        /* \"#utility.yul\":8124:8127   */\n      dup4\n        /* \"#utility.yul\":8120:8136   */\n      add\n        /* \"#utility.yul\":8113:8140   */\n      mstore\n        /* \"#utility.yul\":8008:8147   */\n      pop\n      pop\n      pop\n      jump\t// out\n        /* \"#utility.yul\":8153:8510   */\n    tag_109:\n        /* \"#utility.yul\":8231:8234   */\n      0x00\n        /* \"#utility.yul\":8259:8298   */\n      tag_214\n        /* \"#utility.yul\":8292:8297   */\n      dup3\n        /* \"#utility.yul\":8259:8298   */\n      tag_106\n      jump\t// in\n    tag_214:\n        /* \"#utility.yul\":8314:8375   */\n      tag_215\n        /* \"#utility.yul\":8368:8374   */\n      dup2\n        /* \"#utility.yul\":8363:8366   */\n      dup6\n        /* \"#utility.yul\":8314:8375   */\n      tag_107\n      jump\t// in\n    tag_215:\n        /* \"#utility.yul\":8307:8375   */\n      swap4\n      pop\n        /* \"#utility.yul\":8384:8449   */\n      tag_216\n        /* \"#utility.yul\":8442:8448   */\n      dup2\n        /* \"#utility.yul\":8437:8440   */\n      dup6\n        /* \"#utility.yul\":8430:8434   */\n      0x20\n        /* \"#utility.yul\":8423:8428   */\n      dup7\n        /* \"#utility.yul\":8419:8435   */\n      add\n        /* \"#utility.yul\":8384:8449   */\n      tag_108\n      jump\t// in\n    tag_216:\n        /* \"#utility.yul\":8474:8503   */\n      tag_217\n        /* \"#utility.yul\":8496:8502   */\n      dup2\n        /* \"#utility.yul\":8474:8503   */\n      tag_85\n      jump\t// in\n    tag_217:\n        /* \"#utility.yul\":8469:8472   */\n      dup5\n        /* \"#utility.yul\":8465:8504   */\n      add\n        /* \"#utility.yul\":8458:8504   */\n      swap2\n      pop\n        /* \"#utility.yul\":8235:8510   */\n      pop\n        /* \"#utility.yul\":8153:8510   */\n      swap3\n      swap2\n      pop\n      pop\n      jump\t// out\n        /* \"#utility.yul\":8516:8712   */\n    tag_110:\n        /* \"#utility.yul\":8605:8615   */\n      0x00\n        /* \"#utility.yul\":8640:8706   */\n      tag_219\n        /* \"#utility.yul\":8702:8705   */\n      dup4\n        /* \"#utility.yul\":8694:8700   */\n      dup4\n        /* \"#utility.yul\":8640:8706   */\n      tag_109\n      jump\t// in\n    tag_219:\n        /* \"#utility.yul\":8626:8706   */\n      swap1\n      pop\n        /* \"#utility.yul\":8516:8712   */\n      swap3\n      swap2\n      pop\n      pop\n      jump\t// out\n        /* \"#utility.yul\":8718:8841   */\n    tag_111:\n        /* \"#utility.yul\":8798:8802   */\n      0x00\n        /* \"#utility.yul\":8830:8834   */\n      0x20\n        /* \"#utility.yul\":8825:8828   */\n      dup3\n        /* \"#utility.yul\":8821:8835   */\n      add\n        /* \"#utility.yul\":8813:8835   */\n      swap1\n      pop\n        /* \"#utility.yul\":8718:8841   */\n      swap2\n      swap1\n      pop\n      jump\t// out\n        /* \"#utility.yul\":8875:9866   */\n    tag_112:\n        /* \"#utility.yul\":9014:9017   */\n      0x00\n        /* \"#utility.yul\":9043:9107   */\n      tag_222\n        /* \"#utility.yul\":9101:9106   */\n      dup3\n        /* \"#utility.yul\":9043:9107   */\n      tag_103\n      jump\t// in\n    tag_222:\n        /* \"#utility.yul\":9123:9219   */\n      tag_223\n        /* \"#utility.yul\":9212:9218   */\n      dup2\n        /* \"#utility.yul\":9207:9210   */\n      dup6\n        /* \"#utility.yul\":9123:9219   */\n      tag_104\n      jump\t// in\n    tag_223:\n        /* \"#utility.yul\":9116:9219   */\n      swap4\n      pop\n        /* \"#utility.yul\":9245:9248   */\n      dup4\n        /* \"#utility.yul\":9290:9294   */\n      0x20\n        /* \"#utility.yul\":9282:9288   */\n      dup3\n        /* \"#utility.yul\":9278:9295   */\n      mul\n        /* \"#utility.yul\":9273:9276   */\n      dup6\n        /* \"#utility.yul\":9269:9296   */\n      add\n        /* \"#utility.yul\":9320:9386   */\n      tag_224\n        /* \"#utility.yul\":9380:9385   */\n      dup6\n        /* \"#utility.yul\":9320:9386   */\n      tag_105\n      jump\t// in\n    tag_224:\n        /* \"#utility.yul\":9409:9416   */\n      dup1\n        /* \"#utility.yul\":9440:9441   */\n      0x00\n        /* \"#utility.yul\":9425:9821   */\n    tag_225:\n        /* \"#utility.yul\":9450:9456   */\n      dup6\n        /* \"#utility.yul\":9447:9448   */\n      dup2\n        /* \"#utility.yul\":9444:9457   */\n      lt\n        /* \"#utility.yul\":9425:9821   */\n      iszero\n      tag_227\n      jumpi\n        /* \"#utility.yul\":9521:9530   */\n      dup5\n        /* \"#utility.yul\":9515:9519   */\n      dup5\n        /* \"#utility.yul\":9511:9531   */\n      sub\n        /* \"#utility.yul\":9506:9509   */\n      dup10\n        /* \"#utility.yul\":9499:9532   */\n      mstore\n        /* \"#utility.yul\":9572:9578   */\n      dup2\n        /* \"#utility.yul\":9566:9579   */\n      mload\n        /* \"#utility.yul\":9600:9684   */\n      tag_228\n        /* \"#utility.yul\":9679:9683   */\n      dup6\n        /* \"#utility.yul\":9664:9677   */\n      dup3\n        /* \"#utility.yul\":9600:9684   */\n      tag_110\n      jump\t// in\n    tag_228:\n        /* \"#utility.yul\":9592:9684   */\n      swap5\n      pop\n        /* \"#utility.yul\":9707:9777   */\n      tag_229\n        /* \"#utility.yul\":9770:9776   */\n      dup4\n        /* \"#utility.yul\":9707:9777   */\n      tag_111\n      jump\t// in\n    tag_229:\n        /* \"#utility.yul\":9697:9777   */\n      swap3\n      pop\n        /* \"#utility.yul\":9806:9810   */\n      0x20\n        /* \"#utility.yul\":9801:9804   */\n      dup11\n        /* \"#utility.yul\":9797:9811   */\n      add\n        /* \"#utility.yul\":9790:9811   */\n      swap10\n      pop\n        /* \"#utility.yul\":9485:9821   */\n      pop\n        /* \"#utility.yul\":9472:9473   */\n      0x01\n        /* \"#utility.yul\":9469:9470   */\n      dup2\n        /* \"#utility.yul\":9465:9474   */\n      add\n        /* \"#utility.yul\":9460:9474   */\n      swap1\n      pop\n        /* \"#utility.yul\":9425:9821   */\n      jump(tag_225)\n    tag_227:\n        /* \"#utility.yul\":9429:9443   */\n      pop\n        /* \"#utility.yul\":9837:9841   */\n      dup3\n        /* \"#utility.yul\":9830:9841   */\n      swap8\n      pop\n        /* \"#utility.yul\":9857:9860   */\n      dup8\n        /* \"#utility.yul\":9850:9860   */\n      swap6\n      pop\n        /* \"#utility.yul\":9019:9866   */\n      pop\n      pop\n      pop\n      pop\n      pop\n        /* \"#utility.yul\":8875:9866   */\n      swap3\n      swap2\n      pop\n      pop\n      jump\t// out\n        /* \"#utility.yul\":9872:10285   */\n    tag_24:\n        /* \"#utility.yul\":10035:10039   */\n      0x00\n        /* \"#utility.yul\":10073:10075   */\n      0x20\n        /* \"#utility.yul\":10062:10071   */\n      dup3\n        /* \"#utility.yul\":10058:10076   */\n      add\n        /* \"#utility.yul\":10050:10076   */\n      swap1\n      pop\n        /* \"#utility.yul\":10122:10131   */\n      dup2\n        /* \"#utility.yul\":10116:10120   */\n      dup2\n        /* \"#utility.yul\":10112:10132   */\n      sub\n        /* \"#utility.yul\":10108:10109   */\n      0x00\n        /* \"#utility.yul\":10097:10106   */\n      dup4\n        /* \"#utility.yul\":10093:10110   */\n      add\n        /* \"#utility.yul\":10086:10133   */\n      mstore\n        /* \"#utility.yul\":10150:10278   */\n      tag_231\n        /* \"#utility.yul\":10273:10277   */\n      dup2\n        /* \"#utility.yul\":10264:10270   */\n      dup5\n        /* \"#utility.yul\":10150:10278   */\n      tag_112\n      jump\t// in\n    tag_231:\n        /* \"#utility.yul\":10142:10278   */\n      swap1\n      pop\n        /* \"#utility.yul\":9872:10285   */\n      swap3\n      swap2\n      pop\n      pop\n      jump\t// out\n        /* \"#utility.yul\":10291:10471   */\n    tag_113:\n        /* \"#utility.yul\":10339:10416   */\n      0x4e487b7100000000000000000000000000000000000000000000000000000000\n        /* \"#utility.yul\":10336:10337   */\n      0x00\n        /* \"#utility.yul\":10329:10417   */\n      mstore\n        /* \"#utility.yul\":10436:10440   */\n      0x22\n        /* \"#utility.yul\":10433:10434   */\n      0x04\n        /* \"#utility.yul\":10426:10441   */\n      mstore\n        /* \"#utility.yul\":10460:10464   */\n      0x24\n        /* \"#utility.yul\":10457:10458   */\n      0x00\n        /* \"#utility.yul\":10450:10465   */\n      revert\n        /* \"#utility.yul\":10477:10797   */\n    tag_57:\n        /* \"#utility.yul\":10521:10527   */\n      0x00\n        /* \"#utility.yul\":10558:10559   */\n      0x02\n        /* \"#utility.yul\":10552:10556   */\n      dup3\n        /* \"#utility.yul\":10548:10560   */\n      div\n        /* \"#utility.yul\":10538:10560   */\n      swap1\n      pop\n        /* \"#utility.yul\":10605:10606   */\n      0x01\n        /* \"#utility.yul\":10599:10603   */\n      dup3\n        /* \"#utility.yul\":10595:10607   */\n      and\n        /* \"#utility.yul\":10626:10644   */\n      dup1\n        /* \"#utility.yul\":10616:10697   */\n      tag_234\n      jumpi\n        /* \"#utility.yul\":10682:10686   */\n      0x7f\n        /* \"#utility.yul\":10674:10680   */\n      dup3\n        /* \"#utility.yul\":10670:10687   */\n      and\n        /* \"#utility.yul\":10660:10687   */\n      swap2\n      pop\n        /* \"#utility.yul\":10616:10697   */\n    tag_234:\n        /* \"#utility.yul\":10744:10746   */\n      0x20\n        /* \"#utility.yul\":10736:10742   */\n      dup3\n        /* \"#utility.yul\":10733:10747   */\n      lt\n        /* \"#utility.yul\":10713:10731   */\n      dup2\n        /* \"#utility.yul\":10710:10748   */\n      sub\n        /* \"#utility.yul\":10707:10791   */\n      tag_235\n      jumpi\n        /* \"#utility.yul\":10763:10781   */\n      tag_236\n      tag_113\n      jump\t// in\n    tag_236:\n        /* \"#utility.yul\":10707:10791   */\n    tag_235:\n        /* \"#utility.yul\":10528:10797   */\n      pop\n        /* \"#utility.yul\":10477:10797   */\n      swap2\n      swap1\n      pop\n      jump\t// out\n        /* \"#utility.yul\":10803:10944   */\n    tag_114:\n        /* \"#utility.yul\":10852:10856   */\n      0x00\n        /* \"#utility.yul\":10875:10878   */\n      dup2\n        /* \"#utility.yul\":10867:10878   */\n      swap1\n      pop\n        /* \"#utility.yul\":10898:10901   */\n      dup2\n        /* \"#utility.yul\":10895:10896   */\n      0x00\n        /* \"#utility.yul\":10888:10902   */\n      mstore\n        /* \"#utility.yul\":10932:10936   */\n      0x20\n        /* \"#utility.yul\":10929:10930   */\n      0x00\n        /* \"#utility.yul\":10919:10937   */\n      keccak256\n        /* \"#utility.yul\":10911:10937   */\n      swap1\n      pop\n        /* \"#utility.yul\":10803:10944   */\n      swap2\n      swap1\n      pop\n      jump\t// out\n        /* \"#utility.yul\":10950:11043   */\n    tag_115:\n        /* \"#utility.yul\":10987:10993   */\n      0x00\n        /* \"#utility.yul\":11034:11036   */\n      0x20\n        /* \"#utility.yul\":11029:11031   */\n      0x1f\n        /* \"#utility.yul\":11022:11027   */\n      dup4\n        /* \"#utility.yul\":11018:11032   */\n      add\n        /* \"#utility.yul\":11014:11037   */\n      div\n        /* \"#utility.yul\":11004:11037   */\n      swap1\n      pop\n        /* \"#utility.yul\":10950:11043   */\n      swap2\n      swap1\n      pop\n      jump\t// out\n        /* \"#utility.yul\":11049:11156   */\n    tag_116:\n        /* \"#utility.yul\":11093:11101   */\n      0x00\n        /* \"#utility.yul\":11143:11148   */\n      dup3\n        /* \"#utility.yul\":11137:11141   */\n      dup3\n        /* \"#utility.yul\":11133:11149   */\n      shl\n        /* \"#utility.yul\":11112:11149   */\n      swap1\n      pop\n        /* \"#utility.yul\":11049:11156   */\n      swap3\n      swap2\n      pop\n      pop\n      jump\t// out\n        /* \"#utility.yul\":11162:11555   */\n    tag_117:\n        /* \"#utility.yul\":11231:11237   */\n      0x00\n        /* \"#utility.yul\":11281:11282   */\n      0x08\n        /* \"#utility.yul\":11269:11279   */\n      dup4\n        /* \"#utility.yul\":11265:11283   */\n      mul\n        /* \"#utility.yul\":11304:11401   */\n      tag_241\n        /* \"#utility.yul\":11334:11400   */\n      0xffffffffffffffffffffffffffffffffffffffffffffffffffffffffffffffff\n        /* \"#utility.yul\":11323:11332   */\n      dup3\n        /* \"#utility.yul\":11304:11401   */\n      tag_116\n      jump\t// in\n    tag_241:\n        /* \"#utility.yul\":11422:11461   */\n      tag_242\n        /* \"#utility.yul\":11452:11460   */\n      dup7\n        /* \"#utility.yul\":11441:11450   */\n      dup4\n        /* \"#utility.yul\":11422:11461   */\n      tag_116\n      jump\t// in\n    tag_242:\n        /* \"#utility.yul\":11410:11461   */\n      swap6\n      pop\n        /* \"#utility.yul\":11494:11498   */\n      dup1\n        /* \"#utility.yul\":11490:11499   */\n      not\n        /* \"#utility.yul\":11483:11488   */\n      dup5\n        /* \"#utility.yul\":11479:11500   */\n      and\n        /* \"#utility.yul\":11470:11500   */\n      swap4\n      pop\n        /* \"#utility.yul\":11543:11547   */\n      dup1\n        /* \"#utility.yul\":11533:11541   */\n      dup7\n        /* \"#utility.yul\":11529:11548   */\n      and\n        /* \"#utility.yul\":11522:11527   */\n      dup5\n        /* \"#utility.yul\":11519:11549   */\n      or\n        /* \"#utility.yul\":11509:11549   */\n      swap3\n      pop\n        /* \"#utility.yul\":11238:11555   */\n      pop\n      pop\n        /* \"#utility.yul\":11162:11555   */\n      swap4\n      swap3\n      pop\n      pop\n      pop\n      jump\t// out\n        /* \"#utility.yul\":11561:11638   */\n    tag_118:\n        /* \"#utility.yul\":11598:11605   */\n      0x00\n        /* \"#utility.yul\":11627:11632   */\n      dup2\n        /* \"#utility.yul\":11616:11632   */\n      swap1\n      pop\n        /* \"#utility.yul\":11561:11638   */\n      swap2\n      swap1\n      pop\n      jump\t// out\n        /* \"#utility.yul\":11644:11704   */\n    tag_119:\n        /* \"#utility.yul\":11672:11675   */\n      0x00\n        /* \"#utility.yul\":11693:11698   */\n      dup2\n        /* \"#utility.yul\":11686:11698   */\n      swap1\n      pop\n        /* \"#utility.yul\":11644:11704   */\n      swap2\n      swap1\n      pop\n      jump\t// out\n        /* \"#utility.yul\":11710:11852   */\n    tag_120:\n        /* \"#utility.yul\":11760:11769   */\n      0x00\n        /* \"#utility.yul\":11793:11846   */\n      tag_246\n        /* \"#utility.yul\":11811:11845   */\n      tag_247\n        /* \"#utility.yul\":11820:11844   */\n      tag_248\n        /* \"#utility.yul\":11838:11843   */\n      dup5\n        /* \"#utility.yul\":11820:11844   */\n      tag_118\n      jump\t// in\n    tag_248:\n        /* \"#utility.yul\":11811:11845   */\n      tag_119\n      jump\t// in\n    tag_247:\n        /* \"#utility.yul\":11793:11846   */\n      tag_118\n      jump\t// in\n    tag_246:\n        /* \"#utility.yul\":11780:11846   */\n      swap1\n      pop\n        /* \"#utility.yul\":11710:11852   */\n      swap2\n      swap1\n      pop\n      jump\t// out\n        /* \"#utility.yul\":11858:11933   */\n    tag_121:\n        /* \"#utility.yul\":11901:11904   */\n      0x00\n        /* \"#utility.yul\":11922:11927   */\n      dup2\n        /* \"#utility.yul\":11915:11927   */\n      swap1\n      pop\n        /* \"#utility.yul\":11858:11933   */\n      swap2\n      swap1\n      pop\n      jump\t// out\n        /* \"#utility.yul\":11939:12208   */\n    tag_122:\n        /* \"#utility.yul\":12049:12088   */\n      tag_251\n        /* \"#utility.yul\":12080:12087   */\n      dup4\n        /* \"#utility.yul\":12049:12088   */\n      tag_120\n      jump\t// in\n    tag_251:\n        /* \"#utility.yul\":12110:12201   */\n      tag_252\n        /* \"#utility.yul\":12159:12200   */\n      tag_253\n        /* \"#utility.yul\":12183:12199   */\n      dup3\n        /* \"#utility.yul\":12159:12200   */\n      tag_121\n      jump\t// in\n    tag_253:\n        /* \"#utility.yul\":12151:12157   */\n      dup5\n        /* \"#utility.yul\":12144:12148   */\n      dup5\n        /* \"#utility.yul\":12138:12149   */\n      sload\n        /* \"#utility.yul\":12110:12201   */\n      tag_117\n      jump\t// in\n    tag_252:\n        /* \"#utility.yul\":12104:12108   */\n      dup3\n        /* \"#utility.yul\":12097:12202   */\n      sstore\n        /* \"#utility.yul\":12015:12208   */\n      pop\n        /* \"#utility.yul\":11939:12208   */\n      pop\n      pop\n      pop\n      jump\t// out\n        /* \"#utility.yul\":12214:12287   */\n    tag_123:\n        /* \"#utility.yul\":12259:12262   */\n      0x00\n        /* \"#utility.yul\":12280:12281   */\n      0x00\n        /* \"#utility.yul\":12273:12281   */\n      swap1\n      pop\n        /* \"#utility.yul\":12214:12287   */\n      swap1\n      jump\t// out\n        /* \"#utility.yul\":12293:12482   */\n    tag_124:\n        /* \"#utility.yul\":12370:12402   */\n      tag_256\n      tag_123\n      jump\t// in\n    tag_256:\n        /* \"#utility.yul\":12411:12476   */\n      tag_257\n        /* \"#utility.yul\":12469:12475   */\n      dup2\n        /* \"#utility.yul\":12461:12467   */\n      dup5\n        /* \"#utility.yul\":12455:12459   */\n      dup5\n        /* \"#utility.yul\":12411:12476   */\n      tag_122\n      jump\t// in\n    tag_257:\n        /* \"#utility.yul\":12346:12482   */\n      pop\n        /* \"#utility.yul\":12293:12482   */\n      pop\n      pop\n      jump\t// out\n        /* \"#utility.yul\":12488:12674   */\n    tag_125:\n        /* \"#utility.yul\":12548:12668   */\n    tag_259:\n        /* \"#utility.yul\":12565:12568   */\n      dup2\n        /* \"#utility.yul\":12558:12563   */\n      dup2\n        /* \"#utility.yul\":12555:12569   */\n      lt\n        /* \"#utility.yul\":12548:12668   */\n      iszero\n      tag_261\n      jumpi\n        /* \"#utility.yul\":12619:12658   */\n      tag_262\n        /* \"#utility.yul\":12656:12657   */\n      0x00\n        /* \"#utility.yul\":12649:12654   */\n      dup3\n        /* \"#utility.yul\":12619:12658   */\n      tag_124\n      jump\t// in\n    tag_262:\n        /* \"#utility.yul\":12592:12593   */\n      0x01\n        /* \"#utility.yul\":12585:12590   */\n      dup2\n        /* \"#utility.yul\":12581:12594   */\n      add\n        /* \"#utility.yul\":12572:12594   */\n      swap1\n      pop\n        /* \"#utility.yul\":12548:12668   */\n      jump(tag_259)\n    tag_261:\n        /* \"#utility.yul\":12488:12674   */\n      pop\n      pop\n      jump\t// out\n        /* \"#utility.yul\":12680:13223   */\n    tag_126:\n        /* \"#utility.yul\":12781:12783   */\n      0x1f\n        /* \"#utility.yul\":12776:12779   */\n      dup3\n        /* \"#utility.yul\":12773:12784   */\n      gt\n        /* \"#utility.yul\":12770:13216   */\n      iszero\n      tag_264\n      jumpi\n        /* \"#utility.yul\":12815:12853   */\n      tag_265\n        /* \"#utility.yul\":12847:12852   */\n      dup2\n        /* \"#utility.yul\":12815:12853   */\n      tag_114\n      jump\t// in\n    tag_265:\n        /* \"#utility.yul\":12899:12928   */\n      tag_266\n        /* \"#utility.yul\":12917:12927   */\n      dup5\n        /* \"#utility.yul\":12899:12928   */\n      tag_115\n      jump\t// in\n    tag_266:\n        /* \"#utility.yul\":12889:12897   */\n      dup2\n        /* \"#utility.yul\":12885:12929   */\n      add\n        /* \"#utility.yul\":13082:13084   */\n      0x20\n        /* \"#utility.yul\":13070:13080   */\n      dup6\n        /* \"#utility.yul\":13067:13085   */\n      lt\n        /* \"#utility.yul\":13064:13113   */\n      iszero\n      tag_267\n      jumpi\n        /* \"#utility.yul\":13103:13111   */\n      dup2\n        /* \"#utility.yul\":13088:13111   */\n      swap1\n      pop\n        /* \"#utility.yul\":13064:13113   */\n    tag_267:\n        /* \"#utility.yul\":13126:13206   */\n      tag_268\n        /* \"#utility.yul\":13182:13204   */\n      tag_269\n        /* \"#utility.yul\":13200:13203   */\n      dup6\n        /* \"#utility.yul\":13182:13204   */\n      tag_115\n      jump\t// in\n    tag_269:\n        /* \"#utility.yul\":13172:13180   */\n      dup4\n        /* \"#utility.yul\":13168:13205   */\n      add\n        /* \"#utility.yul\":13155:13166   */\n      dup3\n        /* \"#utility.yul\":13126:13206   */\n      tag_125\n      jump\t// in\n    tag_268:\n        /* \"#utility.yul\":12785:13216   */\n      pop\n      pop\n        /* \"#utility.yul\":12770:13216   */\n    tag_264:\n        /* \"#utility.yul\":12680:13223   */\n      pop\n      pop\n      pop\n      jump\t// out\n        /* \"#utility.yul\":13229:13346   */\n    tag_127:\n        /* \"#utility.yul\":13283:13291   */\n      0x00\n        /* \"#utility.yul\":13333:13338   */\n      dup3\n        /* \"#utility.yul\":13327:13331   */\n      dup3\n        /* \"#utility.yul\":13323:13339   */\n      shr\n        /* \"#utility.yul\":13302:13339   */\n      swap1\n      pop\n        /* \"#utility.yul\":13229:13346   */\n      swap3\n      swap2\n      pop\n      pop\n      jump\t// out\n        /* \"#utility.yul\":13352:13521   */\n    tag_128:\n        /* \"#utility.yul\":13396:13402   */\n      0x00\n        /* \"#utility.yul\":13429:13480   */\n      tag_272\n        /* \"#utility.yul\":13477:13478   */\n      0x00\n        /* \"#utility.yul\":13473:13479   */\n      not\n        /* \"#utility.yul\":13465:13470   */\n      dup5\n        /* \"#utility.yul\":13462:13463   */\n      0x08\n        /* \"#utility.yul\":13458:13471   */\n      mul\n        /* \"#utility.yul\":13429:13480   */\n      tag_127\n      jump\t// in\n    tag_272:\n        /* \"#utility.yul\":13425:13481   */\n      not\n        /* \"#utility.yul\":13510:13514   */\n      dup1\n        /* \"#utility.yul\":13504:13508   */\n      dup4\n        /* \"#utility.yul\":13500:13515   */\n      and\n        /* \"#utility.yul\":13490:13515   */\n      swap2\n      pop\n        /* \"#utility.yul\":13403:13521   */\n      pop\n        /* \"#utility.yul\":13352:13521   */\n      swap3\n      swap2\n      pop\n      pop\n      jump\t// out\n        /* \"#utility.yul\":13526:13821   */\n    tag_129:\n        /* \"#utility.yul\":13602:13606   */\n      0x00\n        /* \"#utility.yul\":13748:13777   */\n      tag_274\n        /* \"#utility.yul\":13773:13776   */\n      dup4\n        /* \"#utility.yul\":13767:13771   */\n      dup4\n        /* \"#utility.yul\":13748:13777   */\n      tag_128\n      jump\t// in\n    tag_274:\n        /* \"#utility.yul\":13740:13777   */\n      swap2\n      pop\n        /* \"#utility.yul\":13810:13813   */\n      dup3\n        /* \"#utility.yul\":13807:13808   */\n      0x02\n        /* \"#utility.yul\":13803:13814   */\n      mul\n        /* \"#utility.yul\":13797:13801   */\n      dup3\n        /* \"#utility.yul\":13794:13815   */\n      or\n        /* \"#utility.yul\":13786:13815   */\n      swap1\n      pop\n        /* \"#utility.yul\":13526:13821   */\n      swap3\n      swap2\n      pop\n      pop\n      jump\t// out\n        /* \"#utility.yul\":13826:15221   */\n    tag_31:\n        /* \"#utility.yul\":13943:13980   */\n      tag_276\n        /* \"#utility.yul\":13976:13979   */\n      dup3\n        /* \"#utility.yul\":13943:13980   */\n      tag_106\n      jump\t// in\n    tag_276:\n        /* \"#utility.yul\":14045:14063   */\n      0xffffffffffffffff\n        /* \"#utility.yul\":14037:14043   */\n      dup2\n        /* \"#utility.yul\":14034:14064   */\n      gt\n        /* \"#utility.yul\":14031:14087   */\n      iszero\n      tag_277\n      jumpi\n        /* \"#utility.yul\":14067:14085   */\n      tag_278\n      tag_86\n      jump\t// in\n    tag_278:\n        /* \"#utility.yul\":14031:14087   */\n    tag_277:\n        /* \"#utility.yul\":14111:14149   */\n      tag_279\n        /* \"#utility.yul\":14143:14147   */\n      dup3\n        /* \"#utility.yul\":14137:14148   */\n      sload\n        /* \"#utility.yul\":14111:14149   */\n      tag_57\n      jump\t// in\n    tag_279:\n        /* \"#utility.yul\":14196:14263   */\n      tag_280\n        /* \"#utility.yul\":14256:14262   */\n      dup3\n        /* \"#utility.yul\":14248:14254   */\n      dup3\n        /* \"#utility.yul\":14242:14246   */\n      dup6\n        /* \"#utility.yul\":14196:14263   */\n      tag_126\n      jump\t// in\n    tag_280:\n        /* \"#utility.yul\":14290:14291   */\n      0x00\n        /* \"#utility.yul\":14314:14318   */\n      0x20\n        /* \"#utility.yul\":14301:14318   */\n      swap1\n      pop\n        /* \"#utility.yul\":14346:14348   */\n      0x1f\n        /* \"#utility.yul\":14338:14344   */\n      dup4\n        /* \"#utility.yul\":14335:14349   */\n      gt\n        /* \"#utility.yul\":14363:14364   */\n      0x01\n        /* \"#utility.yul\":14358:14976   */\n      dup2\n      eq\n      tag_282\n      jumpi\n        /* \"#utility.yul\":15020:15021   */\n      0x00\n        /* \"#utility.yul\":15037:15043   */\n      dup5\n        /* \"#utility.yul\":15034:15111   */\n      iszero\n      tag_283\n      jumpi\n        /* \"#utility.yul\":15086:15095   */\n      dup3\n        /* \"#utility.yul\":15081:15084   */\n      dup8\n        /* \"#utility.yul\":15077:15096   */\n      add\n        /* \"#utility.yul\":15071:15097   */\n      mload\n        /* \"#utility.yul\":15062:15097   */\n      swap1\n      pop\n        /* \"#utility.yul\":15034:15111   */\n    tag_283:\n        /* \"#utility.yul\":15137:15204   */\n      tag_284\n        /* \"#utility.yul\":15197:15203   */\n      dup6\n        /* \"#utility.yul\":15190:15195   */\n      dup3\n        /* \"#utility.yul\":15137:15204   */\n      tag_129\n      jump\t// in\n    tag_284:\n        /* \"#utility.yul\":15131:15135   */\n      dup7\n        /* \"#utility.yul\":15124:15205   */\n      sstore\n        /* \"#utility.yul\":14993:15215   */\n      pop\n        /* \"#utility.yul\":14328:15215   */\n      jump(tag_281)\n        /* \"#utility.yul\":14358:14976   */\n    tag_282:\n        /* \"#utility.yul\":14410:14414   */\n      0x1f\n        /* \"#utility.yul\":14406:14415   */\n      not\n        /* \"#utility.yul\":14398:14404   */\n      dup5\n        /* \"#utility.yul\":14394:14416   */\n      and\n        /* \"#utility.yul\":14444:14481   */\n      tag_285\n        /* \"#utility.yul\":14476:14480   */\n      dup7\n        /* \"#utility.yul\":14444:14481   */\n      tag_114\n      jump\t// in\n    tag_285:\n        /* \"#utility.yul\":14503:14504   */\n      0x00\n        /* \"#utility.yul\":14517:14725   */\n    tag_286:\n        /* \"#utility.yul\":14531:14538   */\n      dup3\n        /* \"#utility.yul\":14528:14529   */\n      dup2\n        /* \"#utility.yul\":14525:14539   */\n      lt\n        /* \"#utility.yul\":14517:14725   */\n      iszero\n      tag_288\n      jumpi\n        /* \"#utility.yul\":14610:14619   */\n      dup5\n        /* \"#utility.yul\":14605:14608   */\n      dup10\n        /* \"#utility.yul\":14601:14620   */\n      add\n        /* \"#utility.yul\":14595:14621   */\n      mload\n        /* \"#utility.yul\":14587:14593   */\n      dup3\n        /* \"#utility.yul\":14580:14622   */\n      sstore\n        /* \"#utility.yul\":14661:14662   */\n      0x01\n        /* \"#utility.yul\":14653:14659   */\n      dup3\n        /* \"#utility.yul\":14649:14663   */\n      add\n        /* \"#utility.yul\":14639:14663   */\n      swap2\n      pop\n        /* \"#utility.yul\":14708:14710   */\n      0x20\n        /* \"#utility.yul\":14697:14706   */\n      dup6\n        /* \"#utility.yul\":14693:14711   */\n      add\n        /* \"#utility.yul\":14680:14711   */\n      swap5\n      pop\n        /* \"#utility.yul\":14554:14558   */\n      0x20\n        /* \"#utility.yul\":14551:14552   */\n      dup2\n        /* \"#utility.yul\":14547:14559   */\n      add\n        /* \"#utility.yul\":14542:14559   */\n      swap1\n      pop\n        /* \"#utility.yul\":14517:14725   */\n      jump(tag_286)\n    tag_288:\n        /* \"#utility.yul\":14753:14759   */\n      dup7\n        /* \"#utility.yul\":14744:14751   */\n      dup4\n        /* \"#utility.yul\":14741:14760   */\n      lt\n        /* \"#utility.yul\":14738:14917   */\n      iszero\n      tag_289\n      jumpi\n        /* \"#utility.yul\":14811:14820   */\n      dup5\n        /* \"#utility.yul\":14806:14809   */\n      dup10\n        /* \"#utility.yul\":14802:14821   */\n      add\n        /* \"#utility.yul\":14796:14822   */\n      mload\n        /* \"#utility.yul\":14854:14902   */\n      tag_290\n        /* \"#utility.yul\":14896:14900   */\n      0x1f\n        /* \"#utility.yul\":14888:14894   */\n      dup10\n        /* \"#utility.yul\":14884:14901   */\n      and\n        /* \"#utility.yul\":14873:14882   */\n      dup3\n        /* \"#utility.yul\":14854:14902   */\n      tag_128\n      jump\t// in\n    tag_290:\n        /* \"#utility.yul\":14846:14852   */\n      dup4\n        /* \"#utility.yul\":14839:14903   */\n      sstore\n        /* \"#utility.yul\":14761:14917   */\n      pop\n        /* \"#utility.yul\":14738:14917   */\n    tag_289:\n        /* \"#utility.yul\":14963:14964   */\n      0x01\n        /* \"#utility.yul\":14959:14960   */\n      0x02\n        /* \"#utility.yul\":14951:14957   */\n      dup9\n        /* \"#utility.yul\":14947:14961   */\n      mul\n        /* \"#utility.yul\":14943:14965   */\n      add\n        /* \"#utility.yul\":14937:14941   */\n      dup9\n        /* \"#utility.yul\":14930:14966   */\n      sstore\n        /* \"#utility.yul\":14365:14976   */\n      pop\n      pop\n      pop\n        /* \"#utility.yul\":14328:15215   */\n    tag_281:\n      pop\n        /* \"#utility.yul\":13918:15221   */\n      pop\n      pop\n      pop\n        /* \"#utility.yul\":13826:15221   */\n      pop\n      pop\n      jump\t// out\n        /* \"#utility.yul\":15227:15407   */\n    tag_38:\n        /* \"#utility.yul\":15275:15352   */\n      0x4e487b7100000000000000000000000000000000000000000000000000000000\n        /* \"#utility.yul\":15272:15273   */\n      0x00\n        /* \"#utility.yul\":15265:15353   */\n      mstore\n        /* \"#utility.yul\":15372:15376   */\n      0x32\n        /* \"#utility.yul\":15369:15370   */\n      0x04\n        /* \"#utility.yul\":15362:15377   */\n      mstore\n        /* \"#utility.yul\":15396:15400   */\n      0x24\n        /* \"#utility.yul\":15393:15394   */\n      0x00\n        /* \"#utility.yul\":15386:15401   */\n      revert\n        /* \"#utility.yul\":15413:15582   */\n    tag_130:\n        /* \"#utility.yul\":15497:15508   */\n      0x00\n        /* \"#utility.yul\":15531:15537   */\n      dup3\n        /* \"#utility.yul\":15526:15529   */\n      dup3\n        /* \"#utility.yul\":15519:15538   */\n      mstore\n        /* \"#utility.yul\":15571:15575   */\n      0x20\n        /* \"#utility.yul\":15566:15569   */\n      dup3\n        /* \"#utility.yul\":15562:15576   */\n      add\n        /* \"#utility.yul\":15547:15576   */\n      swap1\n      pop\n        /* \"#utility.yul\":15413:15582   */\n      swap3\n      swap2\n      pop\n      pop\n      jump\t// out\n        /* \"#utility.yul\":15588:15758   */\n    tag_131:\n        /* \"#utility.yul\":15728:15750   */\n      0x556e617574686f72697a65642041636365737321000000000000000000000000\n        /* \"#utility.yul\":15724:15725   */\n      0x00\n        /* \"#utility.yul\":15716:15722   */\n      dup3\n        /* \"#utility.yul\":15712:15726   */\n      add\n        /* \"#utility.yul\":15705:15751   */\n      mstore\n        /* \"#utility.yul\":15588:15758   */\n      pop\n      jump\t// out\n        /* \"#utility.yul\":15764:16130   */\n    tag_132:\n        /* \"#utility.yul\":15906:15909   */\n      0x00\n        /* \"#utility.yul\":15927:15994   */\n      tag_295\n        /* \"#utility.yul\":15991:15993   */\n      0x14\n        /* \"#utility.yul\":15986:15989   */\n      dup4\n        /* \"#utility.yul\":15927:15994   */\n      tag_130\n      jump\t// in\n    tag_295:\n        /* \"#utility.yul\":15920:15994   */\n      swap2\n      pop\n        /* \"#utility.yul\":16003:16096   */\n      tag_296\n        /* \"#utility.yul\":16092:16095   */\n      dup3\n        /* \"#utility.yul\":16003:16096   */\n      tag_131\n      jump\t// in\n    tag_296:\n        /* \"#utility.yul\":16121:16123   */\n      0x20\n        /* \"#utility.yul\":16116:16119   */\n      dup3\n        /* \"#utility.yul\":16112:16124   */\n      add\n        /* \"#utility.yul\":16105:16124   */\n      swap1\n      pop\n        /* \"#utility.yul\":15764:16130   */\n      swap2\n      swap1\n      pop\n      jump\t// out\n        /* \"#utility.yul\":16136:16555   */\n    tag_52:\n        /* \"#utility.yul\":16302:16306   */\n      0x00\n        /* \"#utility.yul\":16340:16342   */\n      0x20\n        /* \"#utility.yul\":16329:16338   */\n      dup3\n        /* \"#utility.yul\":16325:16343   */\n      add\n        /* \"#utility.yul\":16317:16343   */\n      swap1\n      pop\n        /* \"#utility.yul\":16389:16398   */\n      dup2\n        /* \"#utility.yul\":16383:16387   */\n      dup2\n        /* \"#utility.yul\":16379:16399   */\n      sub\n        /* \"#utility.yul\":16375:16376   */\n      0x00\n        /* \"#utility.yul\":16364:16373   */\n      dup4\n        /* \"#utility.yul\":16360:16377   */\n      add\n        /* \"#utility.yul\":16353:16400   */\n      mstore\n        /* \"#utility.yul\":16417:16548   */\n      tag_298\n        /* \"#utility.yul\":16543:16547   */\n      dup2\n        /* \"#utility.yul\":16417:16548   */\n      tag_132\n      jump\t// in\n    tag_298:\n        /* \"#utility.yul\":16409:16548   */\n      swap1\n      pop\n        /* \"#utility.yul\":16136:16555   */\n      swap2\n      swap1\n      pop\n      jump\t// out\n\n    auxdata: 0xa264697066735822122052edf4d42d7d2a6072b52d27e03b54518734e275be19c47cb51755586f6be27c64736f6c634300081e0033\n}\n",
				"bytecode": {
					"linkReferences": {},
					"object": "6080604052348015600e575f5ffd5b506112d28061001c5f395ff3fe608060405234801561000f575f5ffd5b5060043610610055575f3560e01c806336d6da5514610059578063a9ed9cb814610075578063bc8bef8114610091578063eb39113f146100af578063ff9913e8146100df575b5f5ffd5b610073600480360381019061006e9190610c44565b6100fb565b005b61008f600480360381019061008a9190610c9e565b61016b565b005b610099610375565b6040516100a69190610dc7565b60405180910390f35b6100c960048036038101906100c49190610c9e565b610476565b6040516100d69190610f02565b60405180910390f35b6100f960048036038101906100f49190610c9e565b610680565b005b5f5f8373ffffffffffffffffffffffffffffffffffffffff1673ffffffffffffffffffffffffffffffffffffffff1681526020019081526020015f2081908060018154018082558091505060019003905f5260205f20015f9091909190915090816101669190611128565b505050565b5f60025f3373ffffffffffffffffffffffffffffffffffffffff1673ffffffffffffffffffffffffffffffffffffffff1681526020019081526020015f205f8373ffffffffffffffffffffffffffffffffffffffff1673ffffffffffffffffffffffffffffffffffffffff1681526020019081526020015f205f6101000a81548160ff0219169083151502179055505f5f90505b60015f3373ffffffffffffffffffffffffffffffffffffffff1673ffffffffffffffffffffffffffffffffffffffff1681526020019081526020015f2080549050811015610371578173ffffffffffffffffffffffffffffffffffffffff1660015f3373ffffffffffffffffffffffffffffffffffffffff1673ffffffffffffffffffffffffffffffffffffffff1681526020019081526020015f2082815481106102ad576102ac6111f7565b5b905f5260205f20015f015f9054906101000a900473ffffffffffffffffffffffffffffffffffffffff1673ffffffffffffffffffffffffffffffffffffffff1603610364575f60015f3373ffffffffffffffffffffffffffffffffffffffff1673ffffffffffffffffffffffffffffffffffffffff1681526020019081526020015f208281548110610342576103416111f7565b5b905f5260205f20015f0160146101000a81548160ff0219169083151502179055505b80806001019150506101ff565b5050565b606060015f3373ffffffffffffffffffffffffffffffffffffffff1673ffffffffffffffffffffffffffffffffffffffff1681526020019081526020015f20805480602002602001604051908101604052809291908181526020015f905b8282101561046d578382905f5260205f20016040518060400160405290815f82015f9054906101000a900473ffffffffffffffffffffffffffffffffffffffff1673ffffffffffffffffffffffffffffffffffffffff1673ffffffffffffffffffffffffffffffffffffffff1681526020015f820160149054906101000a900460ff161515151581525050815260200190600101906103d3565b50505050905090565b60603373ffffffffffffffffffffffffffffffffffffffff168273ffffffffffffffffffffffffffffffffffffffff161480610533575060025f8373ffffffffffffffffffffffffffffffffffffffff1673ffffffffffffffffffffffffffffffffffffffff1681526020019081526020015f205f3373ffffffffffffffffffffffffffffffffffffffff1673ffffffffffffffffffffffffffffffffffffffff1681526020019081526020015f205f9054906101000a900460ff165b610572576040517f08c379a00000000000000000000000000000000000000000000000000000000081526004016105699061127e565b60405180910390fd5b5f5f8373ffffffffffffffffffffffffffffffffffffffff1673ffffffffffffffffffffffffffffffffffffffff1681526020019081526020015f20805480602002602001604051908101604052809291908181526020015f905b82821015610675578382905f5260205f200180546105ea90610f4f565b80601f016020809104026020016040519081016040528092919081815260200182805461061690610f4f565b80156106615780601f1061063857610100808354040283529160200191610661565b820191905f5260205f20905b81548152906001019060200180831161064457829003601f168201915b5050505050815260200190600101906105cd565b505050509050919050565b600160025f3373ffffffffffffffffffffffffffffffffffffffff1673ffffffffffffffffffffffffffffffffffffffff1681526020019081526020015f205f8373ffffffffffffffffffffffffffffffffffffffff1673ffffffffffffffffffffffffffffffffffffffff1681526020019081526020015f205f6101000a81548160ff02191690831515021790555060035f3373ffffffffffffffffffffffffffffffffffffffff1673ffffffffffffffffffffffffffffffffffffffff1681526020019081526020015f205f8273ffffffffffffffffffffffffffffffffffffffff1673ffffffffffffffffffffffffffffffffffffffff1681526020019081526020015f205f9054906101000a900460ff1615610917575f5f90505b60015f3373ffffffffffffffffffffffffffffffffffffffff1673ffffffffffffffffffffffffffffffffffffffff1681526020019081526020015f2080549050811015610911578173ffffffffffffffffffffffffffffffffffffffff1660015f3373ffffffffffffffffffffffffffffffffffffffff1673ffffffffffffffffffffffffffffffffffffffff1681526020019081526020015f20828154811061084d5761084c6111f7565b5b905f5260205f20015f015f9054906101000a900473ffffffffffffffffffffffffffffffffffffffff1673ffffffffffffffffffffffffffffffffffffffff1603610904576001805f3373ffffffffffffffffffffffffffffffffffffffff1673ffffffffffffffffffffffffffffffffffffffff1681526020019081526020015f2082815481106108e2576108e16111f7565b5b905f5260205f20015f0160146101000a81548160ff0219169083151502179055505b808060010191505061079f565b50610a9a565b60015f3373ffffffffffffffffffffffffffffffffffffffff1673ffffffffffffffffffffffffffffffffffffffff1681526020019081526020015f2060405180604001604052808373ffffffffffffffffffffffffffffffffffffffff16815260200160011515815250908060018154018082558091505060019003905f5260205f20015f909190919091505f820151815f015f6101000a81548173ffffffffffffffffffffffffffffffffffffffff021916908373ffffffffffffffffffffffffffffffffffffffff1602179055506020820151815f0160146101000a81548160ff0219169083151502179055505050600160035f3373ffffffffffffffffffffffffffffffffffffffff1673ffffffffffffffffffffffffffffffffffffffff1681526020019081526020015f205f8373ffffffffffffffffffffffffffffffffffffffff1673ffffffffffffffffffffffffffffffffffffffff1681526020019081526020015f205f6101000a81548160ff0219169083151502179055505b50565b5f604051905090565b5f5ffd5b5f5ffd5b5f73ffffffffffffffffffffffffffffffffffffffff82169050919050565b5f610ad782610aae565b9050919050565b610ae781610acd565b8114610af1575f5ffd5b50565b5f81359050610b0281610ade565b92915050565b5f5ffd5b5f5ffd5b5f601f19601f8301169050919050565b7f4e487b71000000000000000000000000000000000000000000000000000000005f52604160045260245ffd5b610b5682610b10565b810181811067ffffffffffffffff82111715610b7557610b74610b20565b5b80604052505050565b5f610b87610a9d565b9050610b938282610b4d565b919050565b5f67ffffffffffffffff821115610bb257610bb1610b20565b5b610bbb82610b10565b9050602081019050919050565b828183375f83830152505050565b5f610be8610be384610b98565b610b7e565b905082815260208101848484011115610c0457610c03610b0c565b5b610c0f848285610bc8565b509392505050565b5f82601f830112610c2b57610c2a610b08565b5b8135610c3b848260208601610bd6565b91505092915050565b5f5f60408385031215610c5a57610c59610aa6565b5b5f610c6785828601610af4565b925050602083013567ffffffffffffffff811115610c8857610c87610aaa565b5b610c9485828601610c17565b9150509250929050565b5f60208284031215610cb357610cb2610aa6565b5b5f610cc084828501610af4565b91505092915050565b5f81519050919050565b5f82825260208201905092915050565b5f819050602082019050919050565b610cfb81610acd565b82525050565b5f8115159050919050565b610d1581610d01565b82525050565b604082015f820151610d2f5f850182610cf2565b506020820151610d426020850182610d0c565b50505050565b5f610d538383610d1b565b60408301905092915050565b5f602082019050919050565b5f610d7582610cc9565b610d7f8185610cd3565b9350610d8a83610ce3565b805f5b83811015610dba578151610da18882610d48565b9750610dac83610d5f565b925050600181019050610d8d565b5085935050505092915050565b5f6020820190508181035f830152610ddf8184610d6b565b905092915050565b5f81519050919050565b5f82825260208201905092915050565b5f819050602082019050919050565b5f81519050919050565b5f82825260208201905092915050565b8281835e5f83830152505050565b5f610e4282610e10565b610e4c8185610e1a565b9350610e5c818560208601610e2a565b610e6581610b10565b840191505092915050565b5f610e7b8383610e38565b905092915050565b5f602082019050919050565b5f610e9982610de7565b610ea38185610df1565b935083602082028501610eb585610e01565b805f5b85811015610ef05784840389528151610ed18582610e70565b9450610edc83610e83565b925060208a01995050600181019050610eb8565b50829750879550505050505092915050565b5f6020820190508181035f830152610f1a8184610e8f565b905092915050565b7f4e487b71000000000000000000000000000000000000000000000000000000005f52602260045260245ffd5b5f6002820490506001821680610f6657607f821691505b602082108103610f7957610f78610f22565b5b50919050565b5f819050815f5260205f209050919050565b5f6020601f8301049050919050565b5f82821b905092915050565b5f60088302610fdb7fffffffffffffffffffffffffffffffffffffffffffffffffffffffffffffffff82610fa0565b610fe58683610fa0565b95508019841693508086168417925050509392505050565b5f819050919050565b5f819050919050565b5f61102961102461101f84610ffd565b611006565b610ffd565b9050919050565b5f819050919050565b6110428361100f565b61105661104e82611030565b848454610fac565b825550505050565b5f5f905090565b61106d61105e565b611078818484611039565b505050565b5b8181101561109b576110905f82611065565b60018101905061107e565b5050565b601f8211156110e0576110b181610f7f565b6110ba84610f91565b810160208510156110c9578190505b6110dd6110d585610f91565b83018261107d565b50505b505050565b5f82821c905092915050565b5f6111005f19846008026110e5565b1980831691505092915050565b5f61111883836110f1565b9150826002028217905092915050565b61113182610e10565b67ffffffffffffffff81111561114a57611149610b20565b5b6111548254610f4f565b61115f82828561109f565b5f60209050601f831160018114611190575f841561117e578287015190505b611188858261110d565b8655506111ef565b601f19841661119e86610f7f565b5f5b828110156111c5578489015182556001820191506020850194506020810190506111a0565b868310156111e257848901516111de601f8916826110f1565b8355505b6001600288020188555050505b505050505050565b7f4e487b71000000000000000000000000000000000000000000000000000000005f52603260045260245ffd5b5f82825260208201905092915050565b7f556e617574686f72697a656420416363657373210000000000000000000000005f82015250565b5f611268601483611224565b915061127382611234565b602082019050919050565b5f6020820190508181035f8301526112958161125c565b905091905056fea264697066735822122052edf4d42d7d2a6072b52d27e03b54518734e275be19c47cb51755586f6be27c64736f6c634300081e0033",
					"opcodes": "PUSH1 0x80 PUSH1 0x40 MSTORE CALLVALUE DUP1 ISZERO PUSH1 0xE JUMPI PUSH0 PUSH0 REVERT JUMPDEST POP PUSH2 0x12D2 DUP1 PUSH2 0x1C PUSH0 CODECOPY PUSH0 RETURN INVALID PUSH1 0x80 PUSH1 0x40 MSTORE CALLVALUE DUP1 ISZERO PUSH2 0xF JUMPI PUSH0 PUSH0 REVERT JUMPDEST POP PUSH1 0x4 CALLDATASIZE LT PUSH2 0x55 JUMPI PUSH0 CALLDATALOAD PUSH1 0xE0 SHR DUP1 PUSH4 0x36D6DA55 EQ PUSH2 0x59 JUMPI DUP1 PUSH4 0xA9ED9CB8 EQ PUSH2 0x75 JUMPI DUP1 PUSH4 0xBC8BEF81 EQ PUSH2 0x91 JUMPI DUP1 PUSH4 0xEB39113F EQ PUSH2 0xAF JUMPI DUP1 PUSH4 0xFF9913E8 EQ PUSH2 0xDF JUMPI JUMPDEST PUSH0 PUSH0 REVERT JUMPDEST PUSH2 0x73 PUSH1 0x4 DUP1 CALLDATASIZE SUB DUP2 ADD SWAP1 PUSH2 0x6E SWAP2 SWAP1 PUSH2 0xC44 JUMP JUMPDEST PUSH2 0xFB JUMP JUMPDEST STOP JUMPDEST PUSH2 0x8F PUSH1 0x4 DUP1 CALLDATASIZE SUB DUP2 ADD SWAP1 PUSH2 0x8A SWAP2 SWAP1 PUSH2 0xC9E JUMP JUMPDEST PUSH2 0x16B JUMP JUMPDEST STOP JUMPDEST PUSH2 0x99 PUSH2 0x375 JUMP JUMPDEST PUSH1 0x40 MLOAD PUSH2 0xA6 SWAP2 SWAP1 PUSH2 0xDC7 JUMP JUMPDEST PUSH1 0x40 MLOAD DUP1 SWAP2 SUB SWAP1 RETURN JUMPDEST PUSH2 0xC9 PUSH1 0x4 DUP1 CALLDATASIZE SUB DUP2 ADD SWAP1 PUSH2 0xC4 SWAP2 SWAP1 PUSH2 0xC9E JUMP JUMPDEST PUSH2 0x476 JUMP JUMPDEST PUSH1 0x40 MLOAD PUSH2 0xD6 SWAP2 SWAP1 PUSH2 0xF02 JUMP JUMPDEST PUSH1 0x40 MLOAD DUP1 SWAP2 SUB SWAP1 RETURN JUMPDEST PUSH2 0xF9 PUSH1 0x4 DUP1 CALLDATASIZE SUB DUP2 ADD SWAP1 PUSH2 0xF4 SWAP2 SWAP1 PUSH2 0xC9E JUMP JUMPDEST PUSH2 0x680 JUMP JUMPDEST STOP JUMPDEST PUSH0 PUSH0 DUP4 PUSH20 0xFFFFFFFFFFFFFFFFFFFFFFFFFFFFFFFFFFFFFFFF AND PUSH20 0xFFFFFFFFFFFFFFFFFFFFFFFFFFFFFFFFFFFFFFFF AND DUP2 MSTORE PUSH1 0x20 ADD SWAP1 DUP2 MSTORE PUSH1 0x20 ADD PUSH0 KECCAK256 DUP2 SWAP1 DUP1 PUSH1 0x1 DUP2 SLOAD ADD DUP1 DUP3 SSTORE DUP1 SWAP2 POP POP PUSH1 0x1 SWAP1 SUB SWAP1 PUSH0 MSTORE PUSH1 0x20 PUSH0 KECCAK256 ADD PUSH0 SWAP1 SWAP2 SWAP1 SWAP2 SWAP1 SWAP2 POP SWAP1 DUP2 PUSH2 0x166 SWAP2 SWAP1 PUSH2 0x1128 JUMP JUMPDEST POP POP POP JUMP JUMPDEST PUSH0 PUSH1 0x2 PUSH0 CALLER PUSH20 0xFFFFFFFFFFFFFFFFFFFFFFFFFFFFFFFFFFFFFFFF AND PUSH20 0xFFFFFFFFFFFFFFFFFFFFFFFFFFFFFFFFFFFFFFFF AND DUP2 MSTORE PUSH1 0x20 ADD SWAP1 DUP2 MSTORE PUSH1 0x20 ADD PUSH0 KECCAK256 PUSH0 DUP4 PUSH20 0xFFFFFFFFFFFFFFFFFFFFFFFFFFFFFFFFFFFFFFFF AND PUSH20 0xFFFFFFFFFFFFFFFFFFFFFFFFFFFFFFFFFFFFFFFF AND DUP2 MSTORE PUSH1 0x20 ADD SWAP1 DUP2 MSTORE PUSH1 0x20 ADD PUSH0 KECCAK256 PUSH0 PUSH2 0x100 EXP DUP2 SLOAD DUP2 PUSH1 0xFF MUL NOT AND SWAP1 DUP4 ISZERO ISZERO MUL OR SWAP1 SSTORE POP PUSH0 PUSH0 SWAP1 POP JUMPDEST PUSH1 0x1 PUSH0 CALLER PUSH20 0xFFFFFFFFFFFFFFFFFFFFFFFFFFFFFFFFFFFFFFFF AND PUSH20 0xFFFFFFFFFFFFFFFFFFFFFFFFFFFFFFFFFFFFFFFF AND DUP2 MSTORE PUSH1 0x20 ADD SWAP1 DUP2 MSTORE PUSH1 0x20 ADD PUSH0 KECCAK256 DUP1 SLOAD SWAP1 POP DUP2 LT ISZERO PUSH2 0x371 JUMPI DUP2 PUSH20 0xFFFFFFFFFFFFFFFFFFFFFFFFFFFFFFFFFFFFFFFF AND PUSH1 0x1 PUSH0 CALLER PUSH20 0xFFFFFFFFFFFFFFFFFFFFFFFFFFFFFFFFFFFFFFFF AND PUSH20 0xFFFFFFFFFFFFFFFFFFFFFFFFFFFFFFFFFFFFFFFF AND DUP2 MSTORE PUSH1 0x20 ADD SWAP1 DUP2 MSTORE PUSH1 0x20 ADD PUSH0 KECCAK256 DUP3 DUP2 SLOAD DUP2 LT PUSH2 0x2AD JUMPI PUSH2 0x2AC PUSH2 0x11F7 JUMP JUMPDEST JUMPDEST SWAP1 PUSH0 MSTORE PUSH1 0x20 PUSH0 KECCAK256 ADD PUSH0 ADD PUSH0 SWAP1 SLOAD SWAP1 PUSH2 0x100 EXP SWAP1 DIV PUSH20 0xFFFFFFFFFFFFFFFFFFFFFFFFFFFFFFFFFFFFFFFF AND PUSH20 0xFFFFFFFFFFFFFFFFFFFFFFFFFFFFFFFFFFFFFFFF AND SUB PUSH2 0x364 JUMPI PUSH0 PUSH1 0x1 PUSH0 CALLER PUSH20 0xFFFFFFFFFFFFFFFFFFFFFFFFFFFFFFFFFFFFFFFF AND PUSH20 0xFFFFFFFFFFFFFFFFFFFFFFFFFFFFFFFFFFFFFFFF AND DUP2 MSTORE PUSH1 0x20 ADD SWAP1 DUP2 MSTORE PUSH1 0x20 ADD PUSH0 KECCAK256 DUP3 DUP2 SLOAD DUP2 LT PUSH2 0x342 JUMPI PUSH2 0x341 PUSH2 0x11F7 JUMP JUMPDEST JUMPDEST SWAP1 PUSH0 MSTORE PUSH1 0x20 PUSH0 KECCAK256 ADD PUSH0 ADD PUSH1 0x14 PUSH2 0x100 EXP DUP2 SLOAD DUP2 PUSH1 0xFF MUL NOT AND SWAP1 DUP4 ISZERO ISZERO MUL OR SWAP1 SSTORE POP JUMPDEST DUP1 DUP1 PUSH1 0x1 ADD SWAP2 POP POP PUSH2 0x1FF JUMP JUMPDEST POP POP JUMP JUMPDEST PUSH1 0x60 PUSH1 0x1 PUSH0 CALLER PUSH20 0xFFFFFFFFFFFFFFFFFFFFFFFFFFFFFFFFFFFFFFFF AND PUSH20 0xFFFFFFFFFFFFFFFFFFFFFFFFFFFFFFFFFFFFFFFF AND DUP2 MSTORE PUSH1 0x20 ADD SWAP1 DUP2 MSTORE PUSH1 0x20 ADD PUSH0 KECCAK256 DUP1 SLOAD DUP1 PUSH1 0x20 MUL PUSH1 0x20 ADD PUSH1 0x40 MLOAD SWAP1 DUP2 ADD PUSH1 0x40 MSTORE DUP1 SWAP3 SWAP2 SWAP1 DUP2 DUP2 MSTORE PUSH1 0x20 ADD PUSH0 SWAP1 JUMPDEST DUP3 DUP3 LT ISZERO PUSH2 0x46D JUMPI DUP4 DUP3 SWAP1 PUSH0 MSTORE PUSH1 0x20 PUSH0 KECCAK256 ADD PUSH1 0x40 MLOAD DUP1 PUSH1 0x40 ADD PUSH1 0x40 MSTORE SWAP1 DUP2 PUSH0 DUP3 ADD PUSH0 SWAP1 SLOAD SWAP1 PUSH2 0x100 EXP SWAP1 DIV PUSH20 0xFFFFFFFFFFFFFFFFFFFFFFFFFFFFFFFFFFFFFFFF AND PUSH20 0xFFFFFFFFFFFFFFFFFFFFFFFFFFFFFFFFFFFFFFFF AND PUSH20 0xFFFFFFFFFFFFFFFFFFFFFFFFFFFFFFFFFFFFFFFF AND DUP2 MSTORE PUSH1 0x20 ADD PUSH0 DUP3 ADD PUSH1 0x14 SWAP1 SLOAD SWAP1 PUSH2 0x100 EXP SWAP1 DIV PUSH1 0xFF AND ISZERO ISZERO ISZERO ISZERO DUP2 MSTORE POP POP DUP2 MSTORE PUSH1 0x20 ADD SWAP1 PUSH1 0x1 ADD SWAP1 PUSH2 0x3D3 JUMP JUMPDEST POP POP POP POP SWAP1 POP SWAP1 JUMP JUMPDEST PUSH1 0x60 CALLER PUSH20 0xFFFFFFFFFFFFFFFFFFFFFFFFFFFFFFFFFFFFFFFF AND DUP3 PUSH20 0xFFFFFFFFFFFFFFFFFFFFFFFFFFFFFFFFFFFFFFFF AND EQ DUP1 PUSH2 0x533 JUMPI POP PUSH1 0x2 PUSH0 DUP4 PUSH20 0xFFFFFFFFFFFFFFFFFFFFFFFFFFFFFFFFFFFFFFFF AND PUSH20 0xFFFFFFFFFFFFFFFFFFFFFFFFFFFFFFFFFFFFFFFF AND DUP2 MSTORE PUSH1 0x20 ADD SWAP1 DUP2 MSTORE PUSH1 0x20 ADD PUSH0 KECCAK256 PUSH0 CALLER PUSH20 0xFFFFFFFFFFFFFFFFFFFFFFFFFFFFFFFFFFFFFFFF AND PUSH20 0xFFFFFFFFFFFFFFFFFFFFFFFFFFFFFFFFFFFFFFFF AND DUP2 MSTORE PUSH1 0x20 ADD SWAP1 DUP2 MSTORE PUSH1 0x20 ADD PUSH0 KECCAK256 PUSH0 SWAP1 SLOAD SWAP1 PUSH2 0x100 EXP SWAP1 DIV PUSH1 0xFF AND JUMPDEST PUSH2 0x572 JUMPI PUSH1 0x40 MLOAD PUSH32 0x8C379A000000000000000000000000000000000000000000000000000000000 DUP2 MSTORE PUSH1 0x4 ADD PUSH2 0x569 SWAP1 PUSH2 0x127E JUMP JUMPDEST PUSH1 0x40 MLOAD DUP1 SWAP2 SUB SWAP1 REVERT JUMPDEST PUSH0 PUSH0 DUP4 PUSH20 0xFFFFFFFFFFFFFFFFFFFFFFFFFFFFFFFFFFFFFFFF AND PUSH20 0xFFFFFFFFFFFFFFFFFFFFFFFFFFFFFFFFFFFFFFFF AND DUP2 MSTORE PUSH1 0x20 ADD SWAP1 DUP2 MSTORE PUSH1 0x20 ADD PUSH0 KECCAK256 DUP1 SLOAD DUP1 PUSH1 0x20 MUL PUSH1 0x20 ADD PUSH1 0x40 MLOAD SWAP1 DUP2 ADD PUSH1 0x40 MSTORE DUP1 SWAP3 SWAP2 SWAP1 DUP2 DUP2 MSTORE PUSH1 0x20 ADD PUSH0 SWAP1 JUMPDEST DUP3 DUP3 LT ISZERO PUSH2 0x675 JUMPI DUP4 DUP3 SWAP1 PUSH0 MSTORE PUSH1 0x20 PUSH0 KECCAK256 ADD DUP1 SLOAD PUSH2 0x5EA SWAP1 PUSH2 0xF4F JUMP JUMPDEST DUP1 PUSH1 0x1F ADD PUSH1 0x20 DUP1 SWAP2 DIV MUL PUSH1 0x20 ADD PUSH1 0x40 MLOAD SWAP1 DUP2 ADD PUSH1 0x40 MSTORE DUP1 SWAP3 SWAP2 SWAP1 DUP2 DUP2 MSTORE PUSH1 0x20 ADD DUP3 DUP1 SLOAD PUSH2 0x616 SWAP1 PUSH2 0xF4F JUMP JUMPDEST DUP1 ISZERO PUSH2 0x661 JUMPI DUP1 PUSH1 0x1F LT PUSH2 0x638 JUMPI PUSH2 0x100 DUP1 DUP4 SLOAD DIV MUL DUP4 MSTORE SWAP2 PUSH1 0x20 ADD SWAP2 PUSH2 0x661 JUMP JUMPDEST DUP3 ADD SWAP2 SWAP1 PUSH0 MSTORE PUSH1 0x20 PUSH0 KECCAK256 SWAP1 JUMPDEST DUP2 SLOAD DUP2 MSTORE SWAP1 PUSH1 0x1 ADD SWAP1 PUSH1 0x20 ADD DUP1 DUP4 GT PUSH2 0x644 JUMPI DUP3 SWAP1 SUB PUSH1 0x1F AND DUP3 ADD SWAP2 JUMPDEST POP POP POP POP POP DUP2 MSTORE PUSH1 0x20 ADD SWAP1 PUSH1 0x1 ADD SWAP1 PUSH2 0x5CD JUMP JUMPDEST POP POP POP POP SWAP1 POP SWAP2 SWAP1 POP JUMP JUMPDEST PUSH1 0x1 PUSH1 0x2 PUSH0 CALLER PUSH20 0xFFFFFFFFFFFFFFFFFFFFFFFFFFFFFFFFFFFFFFFF AND PUSH20 0xFFFFFFFFFFFFFFFFFFFFFFFFFFFFFFFFFFFFFFFF AND DUP2 MSTORE PUSH1 0x20 ADD SWAP1 DUP2 MSTORE PUSH1 0x20 ADD PUSH0 KECCAK256 PUSH0 DUP4 PUSH20 0xFFFFFFFFFFFFFFFFFFFFFFFFFFFFFFFFFFFFFFFF AND PUSH20 0xFFFFFFFFFFFFFFFFFFFFFFFFFFFFFFFFFFFFFFFF AND DUP2 MSTORE PUSH1 0x20 ADD SWAP1 DUP2 MSTORE PUSH1 0x20 ADD PUSH0 KECCAK256 PUSH0 PUSH2 0x100 EXP DUP2 SLOAD DUP2 PUSH1 0xFF MUL NOT AND SWAP1 DUP4 ISZERO ISZERO MUL OR SWAP1 SSTORE POP PUSH1 0x3 PUSH0 CALLER PUSH20 0xFFFFFFFFFFFFFFFFFFFFFFFFFFFFFFFFFFFFFFFF AND PUSH20 0xFFFFFFFFFFFFFFFFFFFFFFFFFFFFFFFFFFFFFFFF AND DUP2 MSTORE PUSH1 0x20 ADD SWAP1 DUP2 MSTORE PUSH1 0x20 ADD PUSH0 KECCAK256 PUSH0 DUP3 PUSH20 0xFFFFFFFFFFFFFFFFFFFFFFFFFFFFFFFFFFFFFFFF AND PUSH20 0xFFFFFFFFFFFFFFFFFFFFFFFFFFFFFFFFFFFFFFFF AND DUP2 MSTORE PUSH1 0x20 ADD SWAP1 DUP2 MSTORE PUSH1 0x20 ADD PUSH0 KECCAK256 PUSH0 SWAP1 SLOAD SWAP1 PUSH2 0x100 EXP SWAP1 DIV PUSH1 0xFF AND ISZERO PUSH2 0x917 JUMPI PUSH0 PUSH0 SWAP1 POP JUMPDEST PUSH1 0x1 PUSH0 CALLER PUSH20 0xFFFFFFFFFFFFFFFFFFFFFFFFFFFFFFFFFFFFFFFF AND PUSH20 0xFFFFFFFFFFFFFFFFFFFFFFFFFFFFFFFFFFFFFFFF AND DUP2 MSTORE PUSH1 0x20 ADD SWAP1 DUP2 MSTORE PUSH1 0x20 ADD PUSH0 KECCAK256 DUP1 SLOAD SWAP1 POP DUP2 LT ISZERO PUSH2 0x911 JUMPI DUP2 PUSH20 0xFFFFFFFFFFFFFFFFFFFFFFFFFFFFFFFFFFFFFFFF AND PUSH1 0x1 PUSH0 CALLER PUSH20 0xFFFFFFFFFFFFFFFFFFFFFFFFFFFFFFFFFFFFFFFF AND PUSH20 0xFFFFFFFFFFFFFFFFFFFFFFFFFFFFFFFFFFFFFFFF AND DUP2 MSTORE PUSH1 0x20 ADD SWAP1 DUP2 MSTORE PUSH1 0x20 ADD PUSH0 KECCAK256 DUP3 DUP2 SLOAD DUP2 LT PUSH2 0x84D JUMPI PUSH2 0x84C PUSH2 0x11F7 JUMP JUMPDEST JUMPDEST SWAP1 PUSH0 MSTORE PUSH1 0x20 PUSH0 KECCAK256 ADD PUSH0 ADD PUSH0 SWAP1 SLOAD SWAP1 PUSH2 0x100 EXP SWAP1 DIV PUSH20 0xFFFFFFFFFFFFFFFFFFFFFFFFFFFFFFFFFFFFFFFF AND PUSH20 0xFFFFFFFFFFFFFFFFFFFFFFFFFFFFFFFFFFFFFFFF AND SUB PUSH2 0x904 JUMPI PUSH1 0x1 DUP1 PUSH0 CALLER PUSH20 0xFFFFFFFFFFFFFFFFFFFFFFFFFFFFFFFFFFFFFFFF AND PUSH20 0xFFFFFFFFFFFFFFFFFFFFFFFFFFFFFFFFFFFFFFFF AND DUP2 MSTORE PUSH1 0x20 ADD SWAP1 DUP2 MSTORE PUSH1 0x20 ADD PUSH0 KECCAK256 DUP3 DUP2 SLOAD DUP2 LT PUSH2 0x8E2 JUMPI PUSH2 0x8E1 PUSH2 0x11F7 JUMP JUMPDEST JUMPDEST SWAP1 PUSH0 MSTORE PUSH1 0x20 PUSH0 KECCAK256 ADD PUSH0 ADD PUSH1 0x14 PUSH2 0x100 EXP DUP2 SLOAD DUP2 PUSH1 0xFF MUL NOT AND SWAP1 DUP4 ISZERO ISZERO MUL OR SWAP1 SSTORE POP JUMPDEST DUP1 DUP1 PUSH1 0x1 ADD SWAP2 POP POP PUSH2 0x79F JUMP JUMPDEST POP PUSH2 0xA9A JUMP JUMPDEST PUSH1 0x1 PUSH0 CALLER PUSH20 0xFFFFFFFFFFFFFFFFFFFFFFFFFFFFFFFFFFFFFFFF AND PUSH20 0xFFFFFFFFFFFFFFFFFFFFFFFFFFFFFFFFFFFFFFFF AND DUP2 MSTORE PUSH1 0x20 ADD SWAP1 DUP2 MSTORE PUSH1 0x20 ADD PUSH0 KECCAK256 PUSH1 0x40 MLOAD DUP1 PUSH1 0x40 ADD PUSH1 0x40 MSTORE DUP1 DUP4 PUSH20 0xFFFFFFFFFFFFFFFFFFFFFFFFFFFFFFFFFFFFFFFF AND DUP2 MSTORE PUSH1 0x20 ADD PUSH1 0x1 ISZERO ISZERO DUP2 MSTORE POP SWAP1 DUP1 PUSH1 0x1 DUP2 SLOAD ADD DUP1 DUP3 SSTORE DUP1 SWAP2 POP POP PUSH1 0x1 SWAP1 SUB SWAP1 PUSH0 MSTORE PUSH1 0x20 PUSH0 KECCAK256 ADD PUSH0 SWAP1 SWAP2 SWAP1 SWAP2 SWAP1 SWAP2 POP PUSH0 DUP3 ADD MLOAD DUP2 PUSH0 ADD PUSH0 PUSH2 0x100 EXP DUP2 SLOAD DUP2 PUSH20 0xFFFFFFFFFFFFFFFFFFFFFFFFFFFFFFFFFFFFFFFF MUL NOT AND SWAP1 DUP4 PUSH20 0xFFFFFFFFFFFFFFFFFFFFFFFFFFFFFFFFFFFFFFFF AND MUL OR SWAP1 SSTORE POP PUSH1 0x20 DUP3 ADD MLOAD DUP2 PUSH0 ADD PUSH1 0x14 PUSH2 0x100 EXP DUP2 SLOAD DUP2 PUSH1 0xFF MUL NOT AND SWAP1 DUP4 ISZERO ISZERO MUL OR SWAP1 SSTORE POP POP POP PUSH1 0x1 PUSH1 0x3 PUSH0 CALLER PUSH20 0xFFFFFFFFFFFFFFFFFFFFFFFFFFFFFFFFFFFFFFFF AND PUSH20 0xFFFFFFFFFFFFFFFFFFFFFFFFFFFFFFFFFFFFFFFF AND DUP2 MSTORE PUSH1 0x20 ADD SWAP1 DUP2 MSTORE PUSH1 0x20 ADD PUSH0 KECCAK256 PUSH0 DUP4 PUSH20 0xFFFFFFFFFFFFFFFFFFFFFFFFFFFFFFFFFFFFFFFF AND PUSH20 0xFFFFFFFFFFFFFFFFFFFFFFFFFFFFFFFFFFFFFFFF AND DUP2 MSTORE PUSH1 0x20 ADD SWAP1 DUP2 MSTORE PUSH1 0x20 ADD PUSH0 KECCAK256 PUSH0 PUSH2 0x100 EXP DUP2 SLOAD DUP2 PUSH1 0xFF MUL NOT AND SWAP1 DUP4 ISZERO ISZERO MUL OR SWAP1 SSTORE POP JUMPDEST POP JUMP JUMPDEST PUSH0 PUSH1 0x40 MLOAD SWAP1 POP SWAP1 JUMP JUMPDEST PUSH0 PUSH0 REVERT JUMPDEST PUSH0 PUSH0 REVERT JUMPDEST PUSH0 PUSH20 0xFFFFFFFFFFFFFFFFFFFFFFFFFFFFFFFFFFFFFFFF DUP3 AND SWAP1 POP SWAP2 SWAP1 POP JUMP JUMPDEST PUSH0 PUSH2 0xAD7 DUP3 PUSH2 0xAAE JUMP JUMPDEST SWAP1 POP SWAP2 SWAP1 POP JUMP JUMPDEST PUSH2 0xAE7 DUP2 PUSH2 0xACD JUMP JUMPDEST DUP2 EQ PUSH2 0xAF1 JUMPI PUSH0 PUSH0 REVERT JUMPDEST POP JUMP JUMPDEST PUSH0 DUP2 CALLDATALOAD SWAP1 POP PUSH2 0xB02 DUP2 PUSH2 0xADE JUMP JUMPDEST SWAP3 SWAP2 POP POP JUMP JUMPDEST PUSH0 PUSH0 REVERT JUMPDEST PUSH0 PUSH0 REVERT JUMPDEST PUSH0 PUSH1 0x1F NOT PUSH1 0x1F DUP4 ADD AND SWAP1 POP SWAP2 SWAP1 POP JUMP JUMPDEST PUSH32 0x4E487B7100000000000000000000000000000000000000000000000000000000 PUSH0 MSTORE PUSH1 0x41 PUSH1 0x4 MSTORE PUSH1 0x24 PUSH0 REVERT JUMPDEST PUSH2 0xB56 DUP3 PUSH2 0xB10 JUMP JUMPDEST DUP2 ADD DUP2 DUP2 LT PUSH8 0xFFFFFFFFFFFFFFFF DUP3 GT OR ISZERO PUSH2 0xB75 JUMPI PUSH2 0xB74 PUSH2 0xB20 JUMP JUMPDEST JUMPDEST DUP1 PUSH1 0x40 MSTORE POP POP POP JUMP JUMPDEST PUSH0 PUSH2 0xB87 PUSH2 0xA9D JUMP JUMPDEST SWAP1 POP PUSH2 0xB93 DUP3 DUP3 PUSH2 0xB4D JUMP JUMPDEST SWAP2 SWAP1 POP JUMP JUMPDEST PUSH0 PUSH8 0xFFFFFFFFFFFFFFFF DUP3 GT ISZERO PUSH2 0xBB2 JUMPI PUSH2 0xBB1 PUSH2 0xB20 JUMP JUMPDEST JUMPDEST PUSH2 0xBBB DUP3 PUSH2 0xB10 JUMP JUMPDEST SWAP1 POP PUSH1 0x20 DUP2 ADD SWAP1 POP SWAP2 SWAP1 POP JUMP JUMPDEST DUP3 DUP2 DUP4 CALLDATACOPY PUSH0 DUP4 DUP4 ADD MSTORE POP POP POP JUMP JUMPDEST PUSH0 PUSH2 0xBE8 PUSH2 0xBE3 DUP5 PUSH2 0xB98 JUMP JUMPDEST PUSH2 0xB7E JUMP JUMPDEST SWAP1 POP DUP3 DUP2 MSTORE PUSH1 0x20 DUP2 ADD DUP5 DUP5 DUP5 ADD GT ISZERO PUSH2 0xC04 JUMPI PUSH2 0xC03 PUSH2 0xB0C JUMP JUMPDEST JUMPDEST PUSH2 0xC0F DUP5 DUP3 DUP6 PUSH2 0xBC8 JUMP JUMPDEST POP SWAP4 SWAP3 POP POP POP JUMP JUMPDEST PUSH0 DUP3 PUSH1 0x1F DUP4 ADD SLT PUSH2 0xC2B JUMPI PUSH2 0xC2A PUSH2 0xB08 JUMP JUMPDEST JUMPDEST DUP2 CALLDATALOAD PUSH2 0xC3B DUP5 DUP3 PUSH1 0x20 DUP7 ADD PUSH2 0xBD6 JUMP JUMPDEST SWAP2 POP POP SWAP3 SWAP2 POP POP JUMP JUMPDEST PUSH0 PUSH0 PUSH1 0x40 DUP4 DUP6 SUB SLT ISZERO PUSH2 0xC5A JUMPI PUSH2 0xC59 PUSH2 0xAA6 JUMP JUMPDEST JUMPDEST PUSH0 PUSH2 0xC67 DUP6 DUP3 DUP7 ADD PUSH2 0xAF4 JUMP JUMPDEST SWAP3 POP POP PUSH1 0x20 DUP4 ADD CALLDATALOAD PUSH8 0xFFFFFFFFFFFFFFFF DUP2 GT ISZERO PUSH2 0xC88 JUMPI PUSH2 0xC87 PUSH2 0xAAA JUMP JUMPDEST JUMPDEST PUSH2 0xC94 DUP6 DUP3 DUP7 ADD PUSH2 0xC17 JUMP JUMPDEST SWAP2 POP POP SWAP3 POP SWAP3 SWAP1 POP JUMP JUMPDEST PUSH0 PUSH1 0x20 DUP3 DUP5 SUB SLT ISZERO PUSH2 0xCB3 JUMPI PUSH2 0xCB2 PUSH2 0xAA6 JUMP JUMPDEST JUMPDEST PUSH0 PUSH2 0xCC0 DUP5 DUP3 DUP6 ADD PUSH2 0xAF4 JUMP JUMPDEST SWAP2 POP POP SWAP3 SWAP2 POP POP JUMP JUMPDEST PUSH0 DUP2 MLOAD SWAP1 POP SWAP2 SWAP1 POP JUMP JUMPDEST PUSH0 DUP3 DUP3 MSTORE PUSH1 0x20 DUP3 ADD SWAP1 POP SWAP3 SWAP2 POP POP JUMP JUMPDEST PUSH0 DUP2 SWAP1 POP PUSH1 0x20 DUP3 ADD SWAP1 POP SWAP2 SWAP1 POP JUMP JUMPDEST PUSH2 0xCFB DUP2 PUSH2 0xACD JUMP JUMPDEST DUP3 MSTORE POP POP JUMP JUMPDEST PUSH0 DUP2 ISZERO ISZERO SWAP1 POP SWAP2 SWAP1 POP JUMP JUMPDEST PUSH2 0xD15 DUP2 PUSH2 0xD01 JUMP JUMPDEST DUP3 MSTORE POP POP JUMP JUMPDEST PUSH1 0x40 DUP3 ADD PUSH0 DUP3 ADD MLOAD PUSH2 0xD2F PUSH0 DUP6 ADD DUP3 PUSH2 0xCF2 JUMP JUMPDEST POP PUSH1 0x20 DUP3 ADD MLOAD PUSH2 0xD42 PUSH1 0x20 DUP6 ADD DUP3 PUSH2 0xD0C JUMP JUMPDEST POP POP POP POP JUMP JUMPDEST PUSH0 PUSH2 0xD53 DUP4 DUP4 PUSH2 0xD1B JUMP JUMPDEST PUSH1 0x40 DUP4 ADD SWAP1 POP SWAP3 SWAP2 POP POP JUMP JUMPDEST PUSH0 PUSH1 0x20 DUP3 ADD SWAP1 POP SWAP2 SWAP1 POP JUMP JUMPDEST PUSH0 PUSH2 0xD75 DUP3 PUSH2 0xCC9 JUMP JUMPDEST PUSH2 0xD7F DUP2 DUP6 PUSH2 0xCD3 JUMP JUMPDEST SWAP4 POP PUSH2 0xD8A DUP4 PUSH2 0xCE3 JUMP JUMPDEST DUP1 PUSH0 JUMPDEST DUP4 DUP2 LT ISZERO PUSH2 0xDBA JUMPI DUP2 MLOAD PUSH2 0xDA1 DUP9 DUP3 PUSH2 0xD48 JUMP JUMPDEST SWAP8 POP PUSH2 0xDAC DUP4 PUSH2 0xD5F JUMP JUMPDEST SWAP3 POP POP PUSH1 0x1 DUP2 ADD SWAP1 POP PUSH2 0xD8D JUMP JUMPDEST POP DUP6 SWAP4 POP POP POP POP SWAP3 SWAP2 POP POP JUMP JUMPDEST PUSH0 PUSH1 0x20 DUP3 ADD SWAP1 POP DUP2 DUP2 SUB PUSH0 DUP4 ADD MSTORE PUSH2 0xDDF DUP2 DUP5 PUSH2 0xD6B JUMP JUMPDEST SWAP1 POP SWAP3 SWAP2 POP POP JUMP JUMPDEST PUSH0 DUP2 MLOAD SWAP1 POP SWAP2 SWAP1 POP JUMP JUMPDEST PUSH0 DUP3 DUP3 MSTORE PUSH1 0x20 DUP3 ADD SWAP1 POP SWAP3 SWAP2 POP POP JUMP JUMPDEST PUSH0 DUP2 SWAP1 POP PUSH1 0x20 DUP3 ADD SWAP1 POP SWAP2 SWAP1 POP JUMP JUMPDEST PUSH0 DUP2 MLOAD SWAP1 POP SWAP2 SWAP1 POP JUMP JUMPDEST PUSH0 DUP3 DUP3 MSTORE PUSH1 0x20 DUP3 ADD SWAP1 POP SWAP3 SWAP2 POP POP JUMP JUMPDEST DUP3 DUP2 DUP4 MCOPY PUSH0 DUP4 DUP4 ADD MSTORE POP POP POP JUMP JUMPDEST PUSH0 PUSH2 0xE42 DUP3 PUSH2 0xE10 JUMP JUMPDEST PUSH2 0xE4C DUP2 DUP6 PUSH2 0xE1A JUMP JUMPDEST SWAP4 POP PUSH2 0xE5C DUP2 DUP6 PUSH1 0x20 DUP7 ADD PUSH2 0xE2A JUMP JUMPDEST PUSH2 0xE65 DUP2 PUSH2 0xB10 JUMP JUMPDEST DUP5 ADD SWAP2 POP POP SWAP3 SWAP2 POP POP JUMP JUMPDEST PUSH0 PUSH2 0xE7B DUP4 DUP4 PUSH2 0xE38 JUMP JUMPDEST SWAP1 POP SWAP3 SWAP2 POP POP JUMP JUMPDEST PUSH0 PUSH1 0x20 DUP3 ADD SWAP1 POP SWAP2 SWAP1 POP JUMP JUMPDEST PUSH0 PUSH2 0xE99 DUP3 PUSH2 0xDE7 JUMP JUMPDEST PUSH2 0xEA3 DUP2 DUP6 PUSH2 0xDF1 JUMP JUMPDEST SWAP4 POP DUP4 PUSH1 0x20 DUP3 MUL DUP6 ADD PUSH2 0xEB5 DUP6 PUSH2 0xE01 JUMP JUMPDEST DUP1 PUSH0 JUMPDEST DUP6 DUP2 LT ISZERO PUSH2 0xEF0 JUMPI DUP5 DUP5 SUB DUP10 MSTORE DUP2 MLOAD PUSH2 0xED1 DUP6 DUP3 PUSH2 0xE70 JUMP JUMPDEST SWAP5 POP PUSH2 0xEDC DUP4 PUSH2 0xE83 JUMP JUMPDEST SWAP3 POP PUSH1 0x20 DUP11 ADD SWAP10 POP POP PUSH1 0x1 DUP2 ADD SWAP1 POP PUSH2 0xEB8 JUMP JUMPDEST POP DUP3 SWAP8 POP DUP8 SWAP6 POP POP POP POP POP POP SWAP3 SWAP2 POP POP JUMP JUMPDEST PUSH0 PUSH1 0x20 DUP3 ADD SWAP1 POP DUP2 DUP2 SUB PUSH0 DUP4 ADD MSTORE PUSH2 0xF1A DUP2 DUP5 PUSH2 0xE8F JUMP JUMPDEST SWAP1 POP SWAP3 SWAP2 POP POP JUMP JUMPDEST PUSH32 0x4E487B7100000000000000000000000000000000000000000000000000000000 PUSH0 MSTORE PUSH1 0x22 PUSH1 0x4 MSTORE PUSH1 0x24 PUSH0 REVERT JUMPDEST PUSH0 PUSH1 0x2 DUP3 DIV SWAP1 POP PUSH1 0x1 DUP3 AND DUP1 PUSH2 0xF66 JUMPI PUSH1 0x7F DUP3 AND SWAP2 POP JUMPDEST PUSH1 0x20 DUP3 LT DUP2 SUB PUSH2 0xF79 JUMPI PUSH2 0xF78 PUSH2 0xF22 JUMP JUMPDEST JUMPDEST POP SWAP2 SWAP1 POP JUMP JUMPDEST PUSH0 DUP2 SWAP1 POP DUP2 PUSH0 MSTORE PUSH1 0x20 PUSH0 KECCAK256 SWAP1 POP SWAP2 SWAP1 POP JUMP JUMPDEST PUSH0 PUSH1 0x20 PUSH1 0x1F DUP4 ADD DIV SWAP1 POP SWAP2 SWAP1 POP JUMP JUMPDEST PUSH0 DUP3 DUP3 SHL SWAP1 POP SWAP3 SWAP2 POP POP JUMP JUMPDEST PUSH0 PUSH1 0x8 DUP4 MUL PUSH2 0xFDB PUSH32 0xFFFFFFFFFFFFFFFFFFFFFFFFFFFFFFFFFFFFFFFFFFFFFFFFFFFFFFFFFFFFFFFF DUP3 PUSH2 0xFA0 JUMP JUMPDEST PUSH2 0xFE5 DUP7 DUP4 PUSH2 0xFA0 JUMP JUMPDEST SWAP6 POP DUP1 NOT DUP5 AND SWAP4 POP DUP1 DUP7 AND DUP5 OR SWAP3 POP POP POP SWAP4 SWAP3 POP POP POP JUMP JUMPDEST PUSH0 DUP2 SWAP1 POP SWAP2 SWAP1 POP JUMP JUMPDEST PUSH0 DUP2 SWAP1 POP SWAP2 SWAP1 POP JUMP JUMPDEST PUSH0 PUSH2 0x1029 PUSH2 0x1024 PUSH2 0x101F DUP5 PUSH2 0xFFD JUMP JUMPDEST PUSH2 0x1006 JUMP JUMPDEST PUSH2 0xFFD JUMP JUMPDEST SWAP1 POP SWAP2 SWAP1 POP JUMP JUMPDEST PUSH0 DUP2 SWAP1 POP SWAP2 SWAP1 POP JUMP JUMPDEST PUSH2 0x1042 DUP4 PUSH2 0x100F JUMP JUMPDEST PUSH2 0x1056 PUSH2 0x104E DUP3 PUSH2 0x1030 JUMP JUMPDEST DUP5 DUP5 SLOAD PUSH2 0xFAC JUMP JUMPDEST DUP3 SSTORE POP POP POP POP JUMP JUMPDEST PUSH0 PUSH0 SWAP1 POP SWAP1 JUMP JUMPDEST PUSH2 0x106D PUSH2 0x105E JUMP JUMPDEST PUSH2 0x1078 DUP2 DUP5 DUP5 PUSH2 0x1039 JUMP JUMPDEST POP POP POP JUMP JUMPDEST JUMPDEST DUP2 DUP2 LT ISZERO PUSH2 0x109B JUMPI PUSH2 0x1090 PUSH0 DUP3 PUSH2 0x1065 JUMP JUMPDEST PUSH1 0x1 DUP2 ADD SWAP1 POP PUSH2 0x107E JUMP JUMPDEST POP POP JUMP JUMPDEST PUSH1 0x1F DUP3 GT ISZERO PUSH2 0x10E0 JUMPI PUSH2 0x10B1 DUP2 PUSH2 0xF7F JUMP JUMPDEST PUSH2 0x10BA DUP5 PUSH2 0xF91 JUMP JUMPDEST DUP2 ADD PUSH1 0x20 DUP6 LT ISZERO PUSH2 0x10C9 JUMPI DUP2 SWAP1 POP JUMPDEST PUSH2 0x10DD PUSH2 0x10D5 DUP6 PUSH2 0xF91 JUMP JUMPDEST DUP4 ADD DUP3 PUSH2 0x107D JUMP JUMPDEST POP POP JUMPDEST POP POP POP JUMP JUMPDEST PUSH0 DUP3 DUP3 SHR SWAP1 POP SWAP3 SWAP2 POP POP JUMP JUMPDEST PUSH0 PUSH2 0x1100 PUSH0 NOT DUP5 PUSH1 0x8 MUL PUSH2 0x10E5 JUMP JUMPDEST NOT DUP1 DUP4 AND SWAP2 POP POP SWAP3 SWAP2 POP POP JUMP JUMPDEST PUSH0 PUSH2 0x1118 DUP4 DUP4 PUSH2 0x10F1 JUMP JUMPDEST SWAP2 POP DUP3 PUSH1 0x2 MUL DUP3 OR SWAP1 POP SWAP3 SWAP2 POP POP JUMP JUMPDEST PUSH2 0x1131 DUP3 PUSH2 0xE10 JUMP JUMPDEST PUSH8 0xFFFFFFFFFFFFFFFF DUP2 GT ISZERO PUSH2 0x114A JUMPI PUSH2 0x1149 PUSH2 0xB20 JUMP JUMPDEST JUMPDEST PUSH2 0x1154 DUP3 SLOAD PUSH2 0xF4F JUMP JUMPDEST PUSH2 0x115F DUP3 DUP3 DUP6 PUSH2 0x109F JUMP JUMPDEST PUSH0 PUSH1 0x20 SWAP1 POP PUSH1 0x1F DUP4 GT PUSH1 0x1 DUP2 EQ PUSH2 0x1190 JUMPI PUSH0 DUP5 ISZERO PUSH2 0x117E JUMPI DUP3 DUP8 ADD MLOAD SWAP1 POP JUMPDEST PUSH2 0x1188 DUP6 DUP3 PUSH2 0x110D JUMP JUMPDEST DUP7 SSTORE POP PUSH2 0x11EF JUMP JUMPDEST PUSH1 0x1F NOT DUP5 AND PUSH2 0x119E DUP7 PUSH2 0xF7F JUMP JUMPDEST PUSH0 JUMPDEST DUP3 DUP2 LT ISZERO PUSH2 0x11C5 JUMPI DUP5 DUP10 ADD MLOAD DUP3 SSTORE PUSH1 0x1 DUP3 ADD SWAP2 POP PUSH1 0x20 DUP6 ADD SWAP5 POP PUSH1 0x20 DUP2 ADD SWAP1 POP PUSH2 0x11A0 JUMP JUMPDEST DUP7 DUP4 LT ISZERO PUSH2 0x11E2 JUMPI DUP5 DUP10 ADD MLOAD PUSH2 0x11DE PUSH1 0x1F DUP10 AND DUP3 PUSH2 0x10F1 JUMP JUMPDEST DUP4 SSTORE POP JUMPDEST PUSH1 0x1 PUSH1 0x2 DUP9 MUL ADD DUP9 SSTORE POP POP POP JUMPDEST POP POP POP POP POP POP JUMP JUMPDEST PUSH32 0x4E487B7100000000000000000000000000000000000000000000000000000000 PUSH0 MSTORE PUSH1 0x32 PUSH1 0x4 MSTORE PUSH1 0x24 PUSH0 REVERT JUMPDEST PUSH0 DUP3 DUP3 MSTORE PUSH1 0x20 DUP3 ADD SWAP1 POP SWAP3 SWAP2 POP POP JUMP JUMPDEST PUSH32 0x556E617574686F72697A65642041636365737321000000000000000000000000 PUSH0 DUP3 ADD MSTORE POP JUMP JUMPDEST PUSH0 PUSH2 0x1268 PUSH1 0x14 DUP4 PUSH2 0x1224 JUMP JUMPDEST SWAP2 POP PUSH2 0x1273 DUP3 PUSH2 0x1234 JUMP JUMPDEST PUSH1 0x20 DUP3 ADD SWAP1 POP SWAP2 SWAP1 POP JUMP JUMPDEST PUSH0 PUSH1 0x20 DUP3 ADD SWAP1 POP DUP2 DUP2 SUB PUSH0 DUP4 ADD MSTORE PUSH2 0x1295 DUP2 PUSH2 0x125C JUMP JUMPDEST SWAP1 POP SWAP2 SWAP1 POP JUMP INVALID LOG2 PUSH5 0x6970667358 0x22 SLT KECCAK256 MSTORE 0xED DELEGATECALL 0xD4 0x2D PUSH30 0x2A6072B52D27E03B54518734E275BE19C47CB51755586F6BE27C64736F6C PUSH4 0x4300081E STOP CALLER "
				},
				"gasEstimates": {
					"creation": {
						"codeDepositCost": "963600",
						"executionCost": "999",
						"totalCost": "964599"
					},
					"external": {
						"add(address,string)": "infinite",
						"allow(address)": "infinite",
						"disallow(address)": "infinite",
						"display(address)": "infinite",
						"shareAccess()": "infinite"
					}
				},
				"methodIdentifiers": {
					"add(address,string)": "36d6da55",
					"allow(address)": "ff9913e8",
					"disallow(address)": "a9ed9cb8",
					"display(address)": "eb39113f",
					"shareAccess()": "bc8bef81"
				}
			},
			"storageLayout": {
				"storage": [
					{
						"astId": 11,
						"contract": "Contracts/Storage.sol:Upload",
						"label": "value",
						"offset": 0,
						"slot": "0",
						"type": "t_mapping(t_address,t_array(t_string_storage)dyn_storage)"
					},
					{
						"astId": 17,
						"contract": "Contracts/Storage.sol:Upload",
						"label": "accessList",
						"offset": 0,
						"slot": "1",
						"type": "t_mapping(t_address,t_array(t_struct(Access)6_storage)dyn_storage)"
					},
					{
						"astId": 23,
						"contract": "Contracts/Storage.sol:Upload",
						"label": "ownership",
						"offset": 0,
						"slot": "2",
						"type": "t_mapping(t_address,t_mapping(t_address,t_bool))"
					},
					{
						"astId": 29,
						"contract": "Contracts/Storage.sol:Upload",
						"label": "previousData",
						"offset": 0,
						"slot": "3",
						"type": "t_mapping(t_address,t_mapping(t_address,t_bool))"
					}
				],
				"types": {
					"t_address": {
						"encoding": "inplace",
						"label": "address",
						"numberOfBytes": "20"
					},
					"t_array(t_string_storage)dyn_storage": {
						"base": "t_string_storage",
						"encoding": "dynamic_array",
						"label": "string[]",
						"numberOfBytes": "32"
					},
					"t_array(t_struct(Access)6_storage)dyn_storage": {
						"base": "t_struct(Access)6_storage",
						"encoding": "dynamic_array",
						"label": "struct Upload.Access[]",
						"numberOfBytes": "32"
					},
					"t_bool": {
						"encoding": "inplace",
						"label": "bool",
						"numberOfBytes": "1"
					},
					"t_mapping(t_address,t_array(t_string_storage)dyn_storage)": {
						"encoding": "mapping",
						"key": "t_address",
						"label": "mapping(address => string[])",
						"numberOfBytes": "32",
						"value": "t_array(t_string_storage)dyn_storage"
					},
					"t_mapping(t_address,t_array(t_struct(Access)6_storage)dyn_storage)": {
						"encoding": "mapping",
						"key": "t_address",
						"label": "mapping(address => struct Upload.Access[])",
						"numberOfBytes": "32",
						"value": "t_array(t_struct(Access)6_storage)dyn_storage"
					},
					"t_mapping(t_address,t_bool)": {
						"encoding": "mapping",
						"key": "t_address",
						"label": "mapping(address => bool)",
						"numberOfBytes": "32",
						"value": "t_bool"
					},
					"t_mapping(t_address,t_mapping(t_address,t_bool))": {
						"encoding": "mapping",
						"key": "t_address",
						"label": "mapping(address => mapping(address => bool))",
						"numberOfBytes": "32",
						"value": "t_mapping(t_address,t_bool)"
					},
					"t_string_storage": {
						"encoding": "bytes",
						"label": "string",
						"numberOfBytes": "32"
					},
					"t_struct(Access)6_storage": {
						"encoding": "inplace",
						"label": "struct Upload.Access",
						"members": [
							{
								"astId": 3,
								"contract": "Contracts/Storage.sol:Upload",
								"label": "user",
								"offset": 0,
								"slot": "0",
								"type": "t_address"
							},
							{
								"astId": 5,
								"contract": "Contracts/Storage.sol:Upload",
								"label": "access",
								"offset": 20,
								"slot": "0",
								"type": "t_bool"
							}
						],
						"numberOfBytes": "32"
					}
				}
			},
			"userdoc": {
				"kind": "user",
				"methods": {},
				"version": 1
			}
		}
	}
}